{"contracts/TicketSale.sol":{"TicketSale":{"abi":[{"inputs":[{"internalType":"uint256","name":"numTickets","type":"uint256"},{"internalType":"uint256","name":"price","type":"uint256"}],"stateMutability":"nonpayable","type":"constructor"},{"anonymous":false,"inputs":[{"indexed":false,"internalType":"uint256","name":"ticketId","type":"uint256"},{"indexed":false,"internalType":"address","name":"buyer","type":"address"}],"name":"TicketPurchased","type":"event"},{"anonymous":false,"inputs":[{"indexed":false,"internalType":"uint256","name":"ticketId","type":"uint256"},{"indexed":false,"internalType":"uint256","name":"price","type":"uint256"}],"name":"TicketResaleListed","type":"event"},{"anonymous":false,"inputs":[{"indexed":false,"internalType":"uint256","name":"ticketId","type":"uint256"},{"indexed":false,"internalType":"address","name":"from","type":"address"},{"indexed":false,"internalType":"address","name":"to","type":"address"},{"indexed":false,"internalType":"uint256","name":"price","type":"uint256"}],"name":"TicketResold","type":"event"},{"anonymous":false,"inputs":[{"indexed":false,"internalType":"uint256","name":"ticketId","type":"uint256"},{"indexed":false,"internalType":"address","name":"offerer","type":"address"}],"name":"TicketSwapOffered","type":"event"},{"anonymous":false,"inputs":[{"indexed":false,"internalType":"uint256","name":"ticket1Id","type":"uint256"},{"indexed":false,"internalType":"uint256","name":"ticket2Id","type":"uint256"}],"name":"TicketSwapped","type":"event"},{"stateMutability":"payable","type":"fallback"},{"inputs":[{"internalType":"uint256","name":"ticketId","type":"uint256"}],"name":"acceptResale","outputs":[],"stateMutability":"payable","type":"function"},{"inputs":[{"internalType":"uint256","name":"ticketId","type":"uint256"}],"name":"acceptSwap","outputs":[],"stateMutability":"nonpayable","type":"function"},{"inputs":[{"internalType":"uint256","name":"additionalTickets","type":"uint256"}],"name":"addTickets","outputs":[],"stateMutability":"nonpayable","type":"function"},{"inputs":[{"internalType":"uint256","name":"ticketId","type":"uint256"}],"name":"buyTicket","outputs":[],"stateMutability":"payable","type":"function"},{"inputs":[],"name":"checkResale","outputs":[{"internalType":"uint256[]","name":"","type":"uint256[]"}],"stateMutability":"view","type":"function"},{"inputs":[],"name":"getAvailableTickets","outputs":[{"internalType":"uint256[]","name":"","type":"uint256[]"}],"stateMutability":"view","type":"function"},{"inputs":[],"name":"getManagerBalance","outputs":[{"internalType":"uint256","name":"","type":"uint256"}],"stateMutability":"view","type":"function"},{"inputs":[{"internalType":"uint256","name":"ticketId","type":"uint256"}],"name":"getTicketDetails","outputs":[{"internalType":"address","name":"owner","type":"address"},{"internalType":"bool","name":"isForSale","type":"bool"},{"internalType":"uint256","name":"resalePrice","type":"uint256"}],"stateMutability":"view","type":"function"},{"inputs":[{"internalType":"address","name":"person","type":"address"}],"name":"getTicketOf","outputs":[{"internalType":"uint256","name":"","type":"uint256"}],"stateMutability":"view","type":"function"},{"inputs":[],"name":"getTicketPriceInEther","outputs":[{"internalType":"uint256","name":"","type":"uint256"}],"stateMutability":"view","type":"function"},{"inputs":[],"name":"getTotalAvailableTickets","outputs":[{"internalType":"uint256","name":"","type":"uint256"}],"stateMutability":"view","type":"function"},{"inputs":[{"internalType":"address","name":"account","type":"address"}],"name":"isManager","outputs":[{"internalType":"bool","name":"","type":"bool"}],"stateMutability":"view","type":"function"},{"inputs":[],"name":"manager","outputs":[{"internalType":"address","name":"","type":"address"}],"stateMutability":"view","type":"function"},{"inputs":[{"internalType":"uint256","name":"ticketId","type":"uint256"}],"name":"offerSwap","outputs":[],"stateMutability":"nonpayable","type":"function"},{"inputs":[{"internalType":"uint256","name":"price","type":"uint256"}],"name":"resaleTicket","outputs":[],"stateMutability":"nonpayable","type":"function"},{"inputs":[{"internalType":"uint256","name":"","type":"uint256"}],"name":"swapOffers","outputs":[{"internalType":"address","name":"","type":"address"}],"stateMutability":"view","type":"function"},{"inputs":[{"internalType":"uint256","name":"","type":"uint256"}],"name":"ticketOwners","outputs":[{"internalType":"address","name":"","type":"address"}],"stateMutability":"view","type":"function"},{"inputs":[],"name":"ticketPrice","outputs":[{"internalType":"uint256","name":"","type":"uint256"}],"stateMutability":"view","type":"function"},{"inputs":[{"internalType":"uint256","name":"","type":"uint256"}],"name":"ticketsForResale","outputs":[{"internalType":"uint256","name":"","type":"uint256"}],"stateMutability":"view","type":"function"},{"inputs":[{"internalType":"address","name":"","type":"address"}],"name":"ticketsOwned","outputs":[{"internalType":"uint256","name":"","type":"uint256"}],"stateMutability":"view","type":"function"},{"inputs":[],"name":"totalTickets","outputs":[{"internalType":"uint256","name":"","type":"uint256"}],"stateMutability":"view","type":"function"},{"inputs":[{"internalType":"uint256","name":"newPrice","type":"uint256"}],"name":"updateTicketPrice","outputs":[],"stateMutability":"nonpayable","type":"function"},{"stateMutability":"payable","type":"receive"}],"evm":{"bytecode":{"linkReferences":{},"object":"60806040523480156200001157600080fd5b50604051620014fe380380620014fe833981016040819052620000349162000146565b60008211620000955760405162461bcd60e51b815260206004820152602260248201527f4e756d626572206f66207469636b657473206d75737420626520706f73697469604482015261766560f01b60648201526084015b60405180910390fd5b60008111620000e75760405162461bcd60e51b815260206004820152601660248201527f5072696365206d75737420626520706f7369746976650000000000000000000060448201526064016200008c565b600080546001600160a01b03191633179055600181815560028390555b8281116200013d57600081815260036020526040902080546001600160a01b03191690558062000134816200016b565b91505062000104565b50505062000193565b600080604083850312156200015a57600080fd5b505080516020909101519092909150565b6000600182016200018c57634e487b7160e01b600052601160045260246000fd5b5060010190565b61135b80620001a36000396000f3fe60806040526004361061012d5760003560e01c806367dd74ca116100a5578063a3c1a1fe1161006c578063a3c1a1fe14610393578063c4a4be83146103b3578063dd11247e146103c8578063eb2dbcf6146103de578063f02137c814610414578063f3ae24151461043457005b806367dd74ca146102f55780639199385914610308578063943ba2121461031d578063951e202114610330578063a13f1c621461035d57005b8063406b2c2c116100f4578063406b2c2c1461020f578063407724ac1461022f57806342fd92461461025c578063481c6a751461027b5780635a8acacc146102b35780635ff3337f146102d557005b80630412f4ab146101365780630a144fbf1461017f5780631209b1f6146101945780631bf33004146101aa57806324c14160146101ca57005b3661013457005b005b34801561014257600080fd5b5061016c6101513660046111a8565b6001600160a01b031660009081526004602052604090205490565b6040519081526020015b60405180910390f35b34801561018b57600080fd5b5060015461016c565b3480156101a057600080fd5b5061016c60015481565b3480156101b657600080fd5b506101346101c53660046111d8565b610473565b3480156101d657600080fd5b506101ea6101e53660046111d8565b6105c0565b604080516001600160a01b039094168452911515602084015290820152606001610176565b34801561021b57600080fd5b5061013461022a3660046111d8565b610647565b34801561023b57600080fd5b5061016c61024a3660046111d8565b60056020526000908152604090205481565b34801561026857600080fd5b506000546001600160a01b03163161016c565b34801561028757600080fd5b5060005461029b906001600160a01b031681565b6040516001600160a01b039091168152602001610176565b3480156102bf57600080fd5b506102c8610739565b60405161017691906111f1565b3480156102e157600080fd5b506101346102f03660046111d8565b61083e565b6101346103033660046111d8565b61094a565b34801561031457600080fd5b5061016c610bc6565b61013461032b3660046111d8565b610c17565b34801561033c57600080fd5b5061016c61034b3660046111a8565b60046020526000908152604090205481565b34801561036957600080fd5b5061029b6103783660046111d8565b6006602052600090815260409020546001600160a01b031681565b34801561039f57600080fd5b506101346103ae3660046111d8565b610f53565b3480156103bf57600080fd5b506102c8611014565b3480156103d457600080fd5b5061016c60025481565b3480156103ea57600080fd5b5061029b6103f93660046111d8565b6003602052600090815260409020546001600160a01b031681565b34801561042057600080fd5b5061013461042f3660046111d8565b611100565b34801561044057600080fd5b5061046361044f3660046111a8565b6000546001600160a01b0391821691161490565b6040519015158152602001610176565b33600090815260046020526040812054908190036104ac5760405162461bcd60e51b81526004016104a390611235565b60405180910390fd5b6000828152600360209081526040808320548484526006909252909120546001600160a01b0390811691161461051a5760405162461bcd60e51b81526020600482015260136024820152722737903b30b634b21039bbb0b81037b33332b960691b60448201526064016104a3565b6000828152600360209081526040808320805485855282852080546001600160a01b039092166001600160a01b031992831681179091558254339083168117909355918552600484528285208790558185528285208690558585526006845293829020805490941690935580518481529182018590527f3c5c3ca34136e6c4e2255ca1f42341f16cf924acaee035adeb287bda89025af6910160405180910390a1505050565b600080600080841180156105d657506002548411155b6106165760405162461bcd60e51b8152602060048201526011602482015270125b9d985b1a59081d1a58dad95d081251607a1b60448201526064016104a3565b5050506000908152600360209081526040808320546005909252909120546001600160a01b03909116918115159190565b33600090815260046020526040812054908190036106775760405162461bcd60e51b81526004016104a390611235565b6000828152600360205260409020546001600160a01b03166106db5760405162461bcd60e51b815260206004820152601760248201527f546172676574207469636b6574206e6f74206f776e656400000000000000000060448201526064016104a3565b60008281526006602090815260409182902080546001600160a01b031916339081179091558251858152918201527f0c429c57e135043f6747763fe5b3b53a88a48f2f03c709eaeb8634d2bf3d3f7c91015b60405180910390a15050565b6060600060015b6002548111610785576000818152600360205260409020546001600160a01b0316610773578161076f8161127b565b9250505b8061077d8161127b565b915050610740565b5060008167ffffffffffffffff8111156107a1576107a1611294565b6040519080825280602002602001820160405280156107ca578160200160208202803683370190505b509050600060015b6002548111610835576000818152600360205260409020546001600160a01b0316610823578083838151811061080a5761080a6112aa565b60209081029190910101528161081f8161127b565b9250505b8061082d8161127b565b9150506107d2565b50909392505050565b6000546001600160a01b031633146108985760405162461bcd60e51b815260206004820152601c60248201527f4f6e6c79206d616e616765722063616e20616464207469636b6574730000000060448201526064016104a3565b600081116108e85760405162461bcd60e51b815260206004820152601c60248201527f4d75737420616464206174206c65617374206f6e65207469636b65740000000060448201526064016104a3565b6000816002546108f891906112c0565b90506000600254600161090b91906112c0565b90505b81811161094357600081815260036020526040902080546001600160a01b03191690558061093b8161127b565b91505061090e565b5060025550565b60008111801561095c57506002548111155b61099c5760405162461bcd60e51b8152602060048201526011602482015270125b9d985b1a59081d1a58dad95d081251607a1b60448201526064016104a3565b6000818152600360205260409020546001600160a01b0316156109f75760405162461bcd60e51b8152602060048201526013602482015272151a58dad95d08185b1c9958591e481cdbdb19606a1b60448201526064016104a3565b336000908152600460205260409020541580610a1d57506000546001600160a01b031633145b610a615760405162461bcd60e51b8152602060048201526015602482015274105b1c9958591e481bdddb9cc818481d1a58dad95d605a1b60448201526064016104a3565b6001543414610ab25760405162461bcd60e51b815260206004820152601860248201527f496e636f7272656374207061796d656e7420616d6f756e74000000000000000060448201526064016104a3565b600081815260036020908152604080832080546001600160a01b0319163390811790915583526004909152808220839055815490516001600160a01b039091169034908381818185875af1925050503d8060008114610b2d576040519150601f19603f3d011682016040523d82523d6000602084013e610b32565b606091505b5050905080610b915760405162461bcd60e51b815260206004820152602560248201527f4661696c656420746f207472616e73666572207061796d656e7420746f206d616044820152643730b3b2b960d91b60648201526084016104a3565b604080518381523360208201527f785f2865353ae960010300f584fc6c577b757a853af69a99c769df3c8232d3de910161072d565b60008060015b6002548111610c11576000818152600360205260409020546001600160a01b0316610bff5781610bfb8161127b565b9250505b80610c098161127b565b915050610bcc565b50919050565b600081815260056020526040902054610c6a5760405162461bcd60e51b81526020600482015260156024820152745469636b6574206e6f7420666f7220726573616c6560581b60448201526064016104a3565b6000818152600560205260409020543414610cbb5760405162461bcd60e51b8152602060048201526011602482015270125b98dbdc9c9958dd081c185e5b595b9d607a1b60448201526064016104a3565b3360009081526004602052604090205415610d105760405162461bcd60e51b8152602060048201526015602482015274105b1c9958591e481bdddb9cc818481d1a58dad95d605a1b60448201526064016104a3565b60008181526003602090815260408083205460059092528220546001600160a01b03909116916064610d4383600a6112d9565b610d4d91906112f0565b90506000610d5b8284611312565b6000805460405192935090916001600160a01b039091169084908381818185875af1925050503d8060008114610dad576040519150601f19603f3d011682016040523d82523d6000602084013e610db2565b606091505b5050905080610e035760405162461bcd60e51b815260206004820152601e60248201527f4661696c656420746f207472616e73666572207365727669636520666565000060448201526064016104a3565b6000856001600160a01b03168360405160006040518083038185875af1925050503d8060008114610e50576040519150601f19603f3d011682016040523d82523d6000602084013e610e55565b606091505b5050905080610eb25760405162461bcd60e51b8152602060048201526024808201527f4661696c656420746f207472616e73666572207061796d656e7420746f207365604482015263363632b960e11b60648201526084016104a3565b600087815260036020908152604080832080546001600160a01b03191633908117909155808452600483528184208b90556001600160a01b038a168085528285208590558b8552600584528285209490945581518b815292830193909352810191909152606081018690527fd59a36d8310ffb140214be490baf3fe8961f859a17199ec1bf9015c8b73400119060800160405180910390a150505050505050565b3360009081526004602052604081205490819003610f835760405162461bcd60e51b81526004016104a390611235565b60008211610fcc5760405162461bcd60e51b81526020600482015260166024820152755072696365206d75737420626520706f73697469766560501b60448201526064016104a3565b60008181526005602090815260409182902084905581518381529081018490527fa365c2e4770e249b3dbb47dbf991ec623ced2f1ded6b65442da12cade5514e07910161072d565b6060600060015b6002548111611058576000818152600560205260409020541561104657816110428161127b565b9250505b806110508161127b565b91505061101b565b5060008167ffffffffffffffff81111561107457611074611294565b60405190808252806020026020018201604052801561109d578160200160208202803683370190505b509050600060015b600254811161083557600081815260056020526040902054156110ee57808383815181106110d5576110d56112aa565b6020908102919091010152816110ea8161127b565b9250505b806110f88161127b565b9150506110a5565b6000546001600160a01b0316331461115a5760405162461bcd60e51b815260206004820152601d60248201527f4f6e6c79206d616e616765722063616e2075706461746520707269636500000060448201526064016104a3565b600081116111a35760405162461bcd60e51b81526020600482015260166024820152755072696365206d75737420626520706f73697469766560501b60448201526064016104a3565b600155565b6000602082840312156111ba57600080fd5b81356001600160a01b03811681146111d157600080fd5b9392505050565b6000602082840312156111ea57600080fd5b5035919050565b6020808252825182820181905260009190848201906040850190845b818110156112295783518352928401929184019160010161120d565b50909695505050505050565b602080825260169082015275165bdd48191bdb89dd081bdddb8818481d1a58dad95d60521b604082015260600190565b634e487b7160e01b600052601160045260246000fd5b60006001820161128d5761128d611265565b5060010190565b634e487b7160e01b600052604160045260246000fd5b634e487b7160e01b600052603260045260246000fd5b808201808211156112d3576112d3611265565b92915050565b80820281158282048414176112d3576112d3611265565b60008261130d57634e487b7160e01b600052601260045260246000fd5b500490565b818103818111156112d3576112d361126556fea2646970667358221220cae2641a9765af7d9350c95f7c813a0d41c30ac51a8d645c2482a10618a550c364736f6c63430008110033","opcodes":"PUSH1 0x80 PUSH1 0x40 MSTORE CALLVALUE DUP1 ISZERO PUSH3 0x11 JUMPI PUSH1 0x0 DUP1 REVERT JUMPDEST POP PUSH1 0x40 MLOAD PUSH3 0x14FE CODESIZE SUB DUP1 PUSH3 0x14FE DUP4 CODECOPY DUP2 ADD PUSH1 0x40 DUP2 SWAP1 MSTORE PUSH3 0x34 SWAP2 PUSH3 0x146 JUMP JUMPDEST PUSH1 0x0 DUP3 GT PUSH3 0x95 JUMPI PUSH1 0x40 MLOAD PUSH3 0x461BCD PUSH1 0xE5 SHL DUP2 MSTORE PUSH1 0x20 PUSH1 0x4 DUP3 ADD MSTORE PUSH1 0x22 PUSH1 0x24 DUP3 ADD MSTORE PUSH32 0x4E756D626572206F66207469636B657473206D75737420626520706F73697469 PUSH1 0x44 DUP3 ADD MSTORE PUSH2 0x7665 PUSH1 0xF0 SHL PUSH1 0x64 DUP3 ADD MSTORE PUSH1 0x84 ADD JUMPDEST PUSH1 0x40 MLOAD DUP1 SWAP2 SUB SWAP1 REVERT JUMPDEST PUSH1 0x0 DUP2 GT PUSH3 0xE7 JUMPI PUSH1 0x40 MLOAD PUSH3 0x461BCD PUSH1 0xE5 SHL DUP2 MSTORE PUSH1 0x20 PUSH1 0x4 DUP3 ADD MSTORE PUSH1 0x16 PUSH1 0x24 DUP3 ADD MSTORE PUSH32 0x5072696365206D75737420626520706F73697469766500000000000000000000 PUSH1 0x44 DUP3 ADD MSTORE PUSH1 0x64 ADD PUSH3 0x8C JUMP JUMPDEST PUSH1 0x0 DUP1 SLOAD PUSH1 0x1 PUSH1 0x1 PUSH1 0xA0 SHL SUB NOT AND CALLER OR SWAP1 SSTORE PUSH1 0x1 DUP2 DUP2 SSTORE PUSH1 0x2 DUP4 SWAP1 SSTORE JUMPDEST DUP3 DUP2 GT PUSH3 0x13D JUMPI PUSH1 0x0 DUP2 DUP2 MSTORE PUSH1 0x3 PUSH1 0x20 MSTORE PUSH1 0x40 SWAP1 KECCAK256 DUP1 SLOAD PUSH1 0x1 PUSH1 0x1 PUSH1 0xA0 SHL SUB NOT AND SWAP1 SSTORE DUP1 PUSH3 0x134 DUP2 PUSH3 0x16B JUMP JUMPDEST SWAP2 POP POP PUSH3 0x104 JUMP JUMPDEST POP POP POP PUSH3 0x193 JUMP JUMPDEST PUSH1 0x0 DUP1 PUSH1 0x40 DUP4 DUP6 SUB SLT ISZERO PUSH3 0x15A JUMPI PUSH1 0x0 DUP1 REVERT JUMPDEST POP POP DUP1 MLOAD PUSH1 0x20 SWAP1 SWAP2 ADD MLOAD SWAP1 SWAP3 SWAP1 SWAP2 POP JUMP JUMPDEST PUSH1 0x0 PUSH1 0x1 DUP3 ADD PUSH3 0x18C JUMPI PUSH4 0x4E487B71 PUSH1 0xE0 SHL PUSH1 0x0 MSTORE PUSH1 0x11 PUSH1 0x4 MSTORE PUSH1 0x24 PUSH1 0x0 REVERT JUMPDEST POP PUSH1 0x1 ADD SWAP1 JUMP JUMPDEST PUSH2 0x135B DUP1 PUSH3 0x1A3 PUSH1 0x0 CODECOPY PUSH1 0x0 RETURN INVALID PUSH1 0x80 PUSH1 0x40 MSTORE PUSH1 0x4 CALLDATASIZE LT PUSH2 0x12D JUMPI PUSH1 0x0 CALLDATALOAD PUSH1 0xE0 SHR DUP1 PUSH4 0x67DD74CA GT PUSH2 0xA5 JUMPI DUP1 PUSH4 0xA3C1A1FE GT PUSH2 0x6C JUMPI DUP1 PUSH4 0xA3C1A1FE EQ PUSH2 0x393 JUMPI DUP1 PUSH4 0xC4A4BE83 EQ PUSH2 0x3B3 JUMPI DUP1 PUSH4 0xDD11247E EQ PUSH2 0x3C8 JUMPI DUP1 PUSH4 0xEB2DBCF6 EQ PUSH2 0x3DE JUMPI DUP1 PUSH4 0xF02137C8 EQ PUSH2 0x414 JUMPI DUP1 PUSH4 0xF3AE2415 EQ PUSH2 0x434 JUMPI STOP JUMPDEST DUP1 PUSH4 0x67DD74CA EQ PUSH2 0x2F5 JUMPI DUP1 PUSH4 0x91993859 EQ PUSH2 0x308 JUMPI DUP1 PUSH4 0x943BA212 EQ PUSH2 0x31D JUMPI DUP1 PUSH4 0x951E2021 EQ PUSH2 0x330 JUMPI DUP1 PUSH4 0xA13F1C62 EQ PUSH2 0x35D JUMPI STOP JUMPDEST DUP1 PUSH4 0x406B2C2C GT PUSH2 0xF4 JUMPI DUP1 PUSH4 0x406B2C2C EQ PUSH2 0x20F JUMPI DUP1 PUSH4 0x407724AC EQ PUSH2 0x22F JUMPI DUP1 PUSH4 0x42FD9246 EQ PUSH2 0x25C JUMPI DUP1 PUSH4 0x481C6A75 EQ PUSH2 0x27B JUMPI DUP1 PUSH4 0x5A8ACACC EQ PUSH2 0x2B3 JUMPI DUP1 PUSH4 0x5FF3337F EQ PUSH2 0x2D5 JUMPI STOP JUMPDEST DUP1 PUSH4 0x412F4AB EQ PUSH2 0x136 JUMPI DUP1 PUSH4 0xA144FBF EQ PUSH2 0x17F JUMPI DUP1 PUSH4 0x1209B1F6 EQ PUSH2 0x194 JUMPI DUP1 PUSH4 0x1BF33004 EQ PUSH2 0x1AA JUMPI DUP1 PUSH4 0x24C14160 EQ PUSH2 0x1CA JUMPI STOP JUMPDEST CALLDATASIZE PUSH2 0x134 JUMPI STOP JUMPDEST STOP JUMPDEST CALLVALUE DUP1 ISZERO PUSH2 0x142 JUMPI PUSH1 0x0 DUP1 REVERT JUMPDEST POP PUSH2 0x16C PUSH2 0x151 CALLDATASIZE PUSH1 0x4 PUSH2 0x11A8 JUMP JUMPDEST PUSH1 0x1 PUSH1 0x1 PUSH1 0xA0 SHL SUB AND PUSH1 0x0 SWAP1 DUP2 MSTORE PUSH1 0x4 PUSH1 0x20 MSTORE PUSH1 0x40 SWAP1 KECCAK256 SLOAD SWAP1 JUMP JUMPDEST PUSH1 0x40 MLOAD SWAP1 DUP2 MSTORE PUSH1 0x20 ADD JUMPDEST PUSH1 0x40 MLOAD DUP1 SWAP2 SUB SWAP1 RETURN JUMPDEST CALLVALUE DUP1 ISZERO PUSH2 0x18B JUMPI PUSH1 0x0 DUP1 REVERT JUMPDEST POP PUSH1 0x1 SLOAD PUSH2 0x16C JUMP JUMPDEST CALLVALUE DUP1 ISZERO PUSH2 0x1A0 JUMPI PUSH1 0x0 DUP1 REVERT JUMPDEST POP PUSH2 0x16C PUSH1 0x1 SLOAD DUP2 JUMP JUMPDEST CALLVALUE DUP1 ISZERO PUSH2 0x1B6 JUMPI PUSH1 0x0 DUP1 REVERT JUMPDEST POP PUSH2 0x134 PUSH2 0x1C5 CALLDATASIZE PUSH1 0x4 PUSH2 0x11D8 JUMP JUMPDEST PUSH2 0x473 JUMP JUMPDEST CALLVALUE DUP1 ISZERO PUSH2 0x1D6 JUMPI PUSH1 0x0 DUP1 REVERT JUMPDEST POP PUSH2 0x1EA PUSH2 0x1E5 CALLDATASIZE PUSH1 0x4 PUSH2 0x11D8 JUMP JUMPDEST PUSH2 0x5C0 JUMP JUMPDEST PUSH1 0x40 DUP1 MLOAD PUSH1 0x1 PUSH1 0x1 PUSH1 0xA0 SHL SUB SWAP1 SWAP5 AND DUP5 MSTORE SWAP2 ISZERO ISZERO PUSH1 0x20 DUP5 ADD MSTORE SWAP1 DUP3 ADD MSTORE PUSH1 0x60 ADD PUSH2 0x176 JUMP JUMPDEST CALLVALUE DUP1 ISZERO PUSH2 0x21B JUMPI PUSH1 0x0 DUP1 REVERT JUMPDEST POP PUSH2 0x134 PUSH2 0x22A CALLDATASIZE PUSH1 0x4 PUSH2 0x11D8 JUMP JUMPDEST PUSH2 0x647 JUMP JUMPDEST CALLVALUE DUP1 ISZERO PUSH2 0x23B JUMPI PUSH1 0x0 DUP1 REVERT JUMPDEST POP PUSH2 0x16C PUSH2 0x24A CALLDATASIZE PUSH1 0x4 PUSH2 0x11D8 JUMP JUMPDEST PUSH1 0x5 PUSH1 0x20 MSTORE PUSH1 0x0 SWAP1 DUP2 MSTORE PUSH1 0x40 SWAP1 KECCAK256 SLOAD DUP2 JUMP JUMPDEST CALLVALUE DUP1 ISZERO PUSH2 0x268 JUMPI PUSH1 0x0 DUP1 REVERT JUMPDEST POP PUSH1 0x0 SLOAD PUSH1 0x1 PUSH1 0x1 PUSH1 0xA0 SHL SUB AND BALANCE PUSH2 0x16C JUMP JUMPDEST CALLVALUE DUP1 ISZERO PUSH2 0x287 JUMPI PUSH1 0x0 DUP1 REVERT JUMPDEST POP PUSH1 0x0 SLOAD PUSH2 0x29B SWAP1 PUSH1 0x1 PUSH1 0x1 PUSH1 0xA0 SHL SUB AND DUP2 JUMP JUMPDEST PUSH1 0x40 MLOAD PUSH1 0x1 PUSH1 0x1 PUSH1 0xA0 SHL SUB SWAP1 SWAP2 AND DUP2 MSTORE PUSH1 0x20 ADD PUSH2 0x176 JUMP JUMPDEST CALLVALUE DUP1 ISZERO PUSH2 0x2BF JUMPI PUSH1 0x0 DUP1 REVERT JUMPDEST POP PUSH2 0x2C8 PUSH2 0x739 JUMP JUMPDEST PUSH1 0x40 MLOAD PUSH2 0x176 SWAP2 SWAP1 PUSH2 0x11F1 JUMP JUMPDEST CALLVALUE DUP1 ISZERO PUSH2 0x2E1 JUMPI PUSH1 0x0 DUP1 REVERT JUMPDEST POP PUSH2 0x134 PUSH2 0x2F0 CALLDATASIZE PUSH1 0x4 PUSH2 0x11D8 JUMP JUMPDEST PUSH2 0x83E JUMP JUMPDEST PUSH2 0x134 PUSH2 0x303 CALLDATASIZE PUSH1 0x4 PUSH2 0x11D8 JUMP JUMPDEST PUSH2 0x94A JUMP JUMPDEST CALLVALUE DUP1 ISZERO PUSH2 0x314 JUMPI PUSH1 0x0 DUP1 REVERT JUMPDEST POP PUSH2 0x16C PUSH2 0xBC6 JUMP JUMPDEST PUSH2 0x134 PUSH2 0x32B CALLDATASIZE PUSH1 0x4 PUSH2 0x11D8 JUMP JUMPDEST PUSH2 0xC17 JUMP JUMPDEST CALLVALUE DUP1 ISZERO PUSH2 0x33C JUMPI PUSH1 0x0 DUP1 REVERT JUMPDEST POP PUSH2 0x16C PUSH2 0x34B CALLDATASIZE PUSH1 0x4 PUSH2 0x11A8 JUMP JUMPDEST PUSH1 0x4 PUSH1 0x20 MSTORE PUSH1 0x0 SWAP1 DUP2 MSTORE PUSH1 0x40 SWAP1 KECCAK256 SLOAD DUP2 JUMP JUMPDEST CALLVALUE DUP1 ISZERO PUSH2 0x369 JUMPI PUSH1 0x0 DUP1 REVERT JUMPDEST POP PUSH2 0x29B PUSH2 0x378 CALLDATASIZE PUSH1 0x4 PUSH2 0x11D8 JUMP JUMPDEST PUSH1 0x6 PUSH1 0x20 MSTORE PUSH1 0x0 SWAP1 DUP2 MSTORE PUSH1 0x40 SWAP1 KECCAK256 SLOAD PUSH1 0x1 PUSH1 0x1 PUSH1 0xA0 SHL SUB AND DUP2 JUMP JUMPDEST CALLVALUE DUP1 ISZERO PUSH2 0x39F JUMPI PUSH1 0x0 DUP1 REVERT JUMPDEST POP PUSH2 0x134 PUSH2 0x3AE CALLDATASIZE PUSH1 0x4 PUSH2 0x11D8 JUMP JUMPDEST PUSH2 0xF53 JUMP JUMPDEST CALLVALUE DUP1 ISZERO PUSH2 0x3BF JUMPI PUSH1 0x0 DUP1 REVERT JUMPDEST POP PUSH2 0x2C8 PUSH2 0x1014 JUMP JUMPDEST CALLVALUE DUP1 ISZERO PUSH2 0x3D4 JUMPI PUSH1 0x0 DUP1 REVERT JUMPDEST POP PUSH2 0x16C PUSH1 0x2 SLOAD DUP2 JUMP JUMPDEST CALLVALUE DUP1 ISZERO PUSH2 0x3EA JUMPI PUSH1 0x0 DUP1 REVERT JUMPDEST POP PUSH2 0x29B PUSH2 0x3F9 CALLDATASIZE PUSH1 0x4 PUSH2 0x11D8 JUMP JUMPDEST PUSH1 0x3 PUSH1 0x20 MSTORE PUSH1 0x0 SWAP1 DUP2 MSTORE PUSH1 0x40 SWAP1 KECCAK256 SLOAD PUSH1 0x1 PUSH1 0x1 PUSH1 0xA0 SHL SUB AND DUP2 JUMP JUMPDEST CALLVALUE DUP1 ISZERO PUSH2 0x420 JUMPI PUSH1 0x0 DUP1 REVERT JUMPDEST POP PUSH2 0x134 PUSH2 0x42F CALLDATASIZE PUSH1 0x4 PUSH2 0x11D8 JUMP JUMPDEST PUSH2 0x1100 JUMP JUMPDEST CALLVALUE DUP1 ISZERO PUSH2 0x440 JUMPI PUSH1 0x0 DUP1 REVERT JUMPDEST POP PUSH2 0x463 PUSH2 0x44F CALLDATASIZE PUSH1 0x4 PUSH2 0x11A8 JUMP JUMPDEST PUSH1 0x0 SLOAD PUSH1 0x1 PUSH1 0x1 PUSH1 0xA0 SHL SUB SWAP2 DUP3 AND SWAP2 AND EQ SWAP1 JUMP JUMPDEST PUSH1 0x40 MLOAD SWAP1 ISZERO ISZERO DUP2 MSTORE PUSH1 0x20 ADD PUSH2 0x176 JUMP JUMPDEST CALLER PUSH1 0x0 SWAP1 DUP2 MSTORE PUSH1 0x4 PUSH1 0x20 MSTORE PUSH1 0x40 DUP2 KECCAK256 SLOAD SWAP1 DUP2 SWAP1 SUB PUSH2 0x4AC JUMPI PUSH1 0x40 MLOAD PUSH3 0x461BCD PUSH1 0xE5 SHL DUP2 MSTORE PUSH1 0x4 ADD PUSH2 0x4A3 SWAP1 PUSH2 0x1235 JUMP JUMPDEST PUSH1 0x40 MLOAD DUP1 SWAP2 SUB SWAP1 REVERT JUMPDEST PUSH1 0x0 DUP3 DUP2 MSTORE PUSH1 0x3 PUSH1 0x20 SWAP1 DUP2 MSTORE PUSH1 0x40 DUP1 DUP4 KECCAK256 SLOAD DUP5 DUP5 MSTORE PUSH1 0x6 SWAP1 SWAP3 MSTORE SWAP1 SWAP2 KECCAK256 SLOAD PUSH1 0x1 PUSH1 0x1 PUSH1 0xA0 SHL SUB SWAP1 DUP2 AND SWAP2 AND EQ PUSH2 0x51A JUMPI PUSH1 0x40 MLOAD PUSH3 0x461BCD PUSH1 0xE5 SHL DUP2 MSTORE PUSH1 0x20 PUSH1 0x4 DUP3 ADD MSTORE PUSH1 0x13 PUSH1 0x24 DUP3 ADD MSTORE PUSH19 0x2737903B30B634B21039BBB0B81037B33332B9 PUSH1 0x69 SHL PUSH1 0x44 DUP3 ADD MSTORE PUSH1 0x64 ADD PUSH2 0x4A3 JUMP JUMPDEST PUSH1 0x0 DUP3 DUP2 MSTORE PUSH1 0x3 PUSH1 0x20 SWAP1 DUP2 MSTORE PUSH1 0x40 DUP1 DUP4 KECCAK256 DUP1 SLOAD DUP6 DUP6 MSTORE DUP3 DUP6 KECCAK256 DUP1 SLOAD PUSH1 0x1 PUSH1 0x1 PUSH1 0xA0 SHL SUB SWAP1 SWAP3 AND PUSH1 0x1 PUSH1 0x1 PUSH1 0xA0 SHL SUB NOT SWAP3 DUP4 AND DUP2 OR SWAP1 SWAP2 SSTORE DUP3 SLOAD CALLER SWAP1 DUP4 AND DUP2 OR SWAP1 SWAP4 SSTORE SWAP2 DUP6 MSTORE PUSH1 0x4 DUP5 MSTORE DUP3 DUP6 KECCAK256 DUP8 SWAP1 SSTORE DUP2 DUP6 MSTORE DUP3 DUP6 KECCAK256 DUP7 SWAP1 SSTORE DUP6 DUP6 MSTORE PUSH1 0x6 DUP5 MSTORE SWAP4 DUP3 SWAP1 KECCAK256 DUP1 SLOAD SWAP1 SWAP5 AND SWAP1 SWAP4 SSTORE DUP1 MLOAD DUP5 DUP2 MSTORE SWAP2 DUP3 ADD DUP6 SWAP1 MSTORE PUSH32 0x3C5C3CA34136E6C4E2255CA1F42341F16CF924ACAEE035ADEB287BDA89025AF6 SWAP2 ADD PUSH1 0x40 MLOAD DUP1 SWAP2 SUB SWAP1 LOG1 POP POP POP JUMP JUMPDEST PUSH1 0x0 DUP1 PUSH1 0x0 DUP1 DUP5 GT DUP1 ISZERO PUSH2 0x5D6 JUMPI POP PUSH1 0x2 SLOAD DUP5 GT ISZERO JUMPDEST PUSH2 0x616 JUMPI PUSH1 0x40 MLOAD PUSH3 0x461BCD PUSH1 0xE5 SHL DUP2 MSTORE PUSH1 0x20 PUSH1 0x4 DUP3 ADD MSTORE PUSH1 0x11 PUSH1 0x24 DUP3 ADD MSTORE PUSH17 0x125B9D985B1A59081D1A58DAD95D081251 PUSH1 0x7A SHL PUSH1 0x44 DUP3 ADD MSTORE PUSH1 0x64 ADD PUSH2 0x4A3 JUMP JUMPDEST POP POP POP PUSH1 0x0 SWAP1 DUP2 MSTORE PUSH1 0x3 PUSH1 0x20 SWAP1 DUP2 MSTORE PUSH1 0x40 DUP1 DUP4 KECCAK256 SLOAD PUSH1 0x5 SWAP1 SWAP3 MSTORE SWAP1 SWAP2 KECCAK256 SLOAD PUSH1 0x1 PUSH1 0x1 PUSH1 0xA0 SHL SUB SWAP1 SWAP2 AND SWAP2 DUP2 ISZERO ISZERO SWAP2 SWAP1 JUMP JUMPDEST CALLER PUSH1 0x0 SWAP1 DUP2 MSTORE PUSH1 0x4 PUSH1 0x20 MSTORE PUSH1 0x40 DUP2 KECCAK256 SLOAD SWAP1 DUP2 SWAP1 SUB PUSH2 0x677 JUMPI PUSH1 0x40 MLOAD PUSH3 0x461BCD PUSH1 0xE5 SHL DUP2 MSTORE PUSH1 0x4 ADD PUSH2 0x4A3 SWAP1 PUSH2 0x1235 JUMP JUMPDEST PUSH1 0x0 DUP3 DUP2 MSTORE PUSH1 0x3 PUSH1 0x20 MSTORE PUSH1 0x40 SWAP1 KECCAK256 SLOAD PUSH1 0x1 PUSH1 0x1 PUSH1 0xA0 SHL SUB AND PUSH2 0x6DB JUMPI PUSH1 0x40 MLOAD PUSH3 0x461BCD PUSH1 0xE5 SHL DUP2 MSTORE PUSH1 0x20 PUSH1 0x4 DUP3 ADD MSTORE PUSH1 0x17 PUSH1 0x24 DUP3 ADD MSTORE PUSH32 0x546172676574207469636B6574206E6F74206F776E6564000000000000000000 PUSH1 0x44 DUP3 ADD MSTORE PUSH1 0x64 ADD PUSH2 0x4A3 JUMP JUMPDEST PUSH1 0x0 DUP3 DUP2 MSTORE PUSH1 0x6 PUSH1 0x20 SWAP1 DUP2 MSTORE PUSH1 0x40 SWAP2 DUP3 SWAP1 KECCAK256 DUP1 SLOAD PUSH1 0x1 PUSH1 0x1 PUSH1 0xA0 SHL SUB NOT AND CALLER SWAP1 DUP2 OR SWAP1 SWAP2 SSTORE DUP3 MLOAD DUP6 DUP2 MSTORE SWAP2 DUP3 ADD MSTORE PUSH32 0xC429C57E135043F6747763FE5B3B53A88A48F2F03C709EAEB8634D2BF3D3F7C SWAP2 ADD JUMPDEST PUSH1 0x40 MLOAD DUP1 SWAP2 SUB SWAP1 LOG1 POP POP JUMP JUMPDEST PUSH1 0x60 PUSH1 0x0 PUSH1 0x1 JUMPDEST PUSH1 0x2 SLOAD DUP2 GT PUSH2 0x785 JUMPI PUSH1 0x0 DUP2 DUP2 MSTORE PUSH1 0x3 PUSH1 0x20 MSTORE PUSH1 0x40 SWAP1 KECCAK256 SLOAD PUSH1 0x1 PUSH1 0x1 PUSH1 0xA0 SHL SUB AND PUSH2 0x773 JUMPI DUP2 PUSH2 0x76F DUP2 PUSH2 0x127B JUMP JUMPDEST SWAP3 POP POP JUMPDEST DUP1 PUSH2 0x77D DUP2 PUSH2 0x127B JUMP JUMPDEST SWAP2 POP POP PUSH2 0x740 JUMP JUMPDEST POP PUSH1 0x0 DUP2 PUSH8 0xFFFFFFFFFFFFFFFF DUP2 GT ISZERO PUSH2 0x7A1 JUMPI PUSH2 0x7A1 PUSH2 0x1294 JUMP JUMPDEST PUSH1 0x40 MLOAD SWAP1 DUP1 DUP3 MSTORE DUP1 PUSH1 0x20 MUL PUSH1 0x20 ADD DUP3 ADD PUSH1 0x40 MSTORE DUP1 ISZERO PUSH2 0x7CA JUMPI DUP2 PUSH1 0x20 ADD PUSH1 0x20 DUP3 MUL DUP1 CALLDATASIZE DUP4 CALLDATACOPY ADD SWAP1 POP JUMPDEST POP SWAP1 POP PUSH1 0x0 PUSH1 0x1 JUMPDEST PUSH1 0x2 SLOAD DUP2 GT PUSH2 0x835 JUMPI PUSH1 0x0 DUP2 DUP2 MSTORE PUSH1 0x3 PUSH1 0x20 MSTORE PUSH1 0x40 SWAP1 KECCAK256 SLOAD PUSH1 0x1 PUSH1 0x1 PUSH1 0xA0 SHL SUB AND PUSH2 0x823 JUMPI DUP1 DUP4 DUP4 DUP2 MLOAD DUP2 LT PUSH2 0x80A JUMPI PUSH2 0x80A PUSH2 0x12AA JUMP JUMPDEST PUSH1 0x20 SWAP1 DUP2 MUL SWAP2 SWAP1 SWAP2 ADD ADD MSTORE DUP2 PUSH2 0x81F DUP2 PUSH2 0x127B JUMP JUMPDEST SWAP3 POP POP JUMPDEST DUP1 PUSH2 0x82D DUP2 PUSH2 0x127B JUMP JUMPDEST SWAP2 POP POP PUSH2 0x7D2 JUMP JUMPDEST POP SWAP1 SWAP4 SWAP3 POP POP POP JUMP JUMPDEST PUSH1 0x0 SLOAD PUSH1 0x1 PUSH1 0x1 PUSH1 0xA0 SHL SUB AND CALLER EQ PUSH2 0x898 JUMPI PUSH1 0x40 MLOAD PUSH3 0x461BCD PUSH1 0xE5 SHL DUP2 MSTORE PUSH1 0x20 PUSH1 0x4 DUP3 ADD MSTORE PUSH1 0x1C PUSH1 0x24 DUP3 ADD MSTORE PUSH32 0x4F6E6C79206D616E616765722063616E20616464207469636B65747300000000 PUSH1 0x44 DUP3 ADD MSTORE PUSH1 0x64 ADD PUSH2 0x4A3 JUMP JUMPDEST PUSH1 0x0 DUP2 GT PUSH2 0x8E8 JUMPI PUSH1 0x40 MLOAD PUSH3 0x461BCD PUSH1 0xE5 SHL DUP2 MSTORE PUSH1 0x20 PUSH1 0x4 DUP3 ADD MSTORE PUSH1 0x1C PUSH1 0x24 DUP3 ADD MSTORE PUSH32 0x4D75737420616464206174206C65617374206F6E65207469636B657400000000 PUSH1 0x44 DUP3 ADD MSTORE PUSH1 0x64 ADD PUSH2 0x4A3 JUMP JUMPDEST PUSH1 0x0 DUP2 PUSH1 0x2 SLOAD PUSH2 0x8F8 SWAP2 SWAP1 PUSH2 0x12C0 JUMP JUMPDEST SWAP1 POP PUSH1 0x0 PUSH1 0x2 SLOAD PUSH1 0x1 PUSH2 0x90B SWAP2 SWAP1 PUSH2 0x12C0 JUMP JUMPDEST SWAP1 POP JUMPDEST DUP2 DUP2 GT PUSH2 0x943 JUMPI PUSH1 0x0 DUP2 DUP2 MSTORE PUSH1 0x3 PUSH1 0x20 MSTORE PUSH1 0x40 SWAP1 KECCAK256 DUP1 SLOAD PUSH1 0x1 PUSH1 0x1 PUSH1 0xA0 SHL SUB NOT AND SWAP1 SSTORE DUP1 PUSH2 0x93B DUP2 PUSH2 0x127B JUMP JUMPDEST SWAP2 POP POP PUSH2 0x90E JUMP JUMPDEST POP PUSH1 0x2 SSTORE POP JUMP JUMPDEST PUSH1 0x0 DUP2 GT DUP1 ISZERO PUSH2 0x95C JUMPI POP PUSH1 0x2 SLOAD DUP2 GT ISZERO JUMPDEST PUSH2 0x99C JUMPI PUSH1 0x40 MLOAD PUSH3 0x461BCD PUSH1 0xE5 SHL DUP2 MSTORE PUSH1 0x20 PUSH1 0x4 DUP3 ADD MSTORE PUSH1 0x11 PUSH1 0x24 DUP3 ADD MSTORE PUSH17 0x125B9D985B1A59081D1A58DAD95D081251 PUSH1 0x7A SHL PUSH1 0x44 DUP3 ADD MSTORE PUSH1 0x64 ADD PUSH2 0x4A3 JUMP JUMPDEST PUSH1 0x0 DUP2 DUP2 MSTORE PUSH1 0x3 PUSH1 0x20 MSTORE PUSH1 0x40 SWAP1 KECCAK256 SLOAD PUSH1 0x1 PUSH1 0x1 PUSH1 0xA0 SHL SUB AND ISZERO PUSH2 0x9F7 JUMPI PUSH1 0x40 MLOAD PUSH3 0x461BCD PUSH1 0xE5 SHL DUP2 MSTORE PUSH1 0x20 PUSH1 0x4 DUP3 ADD MSTORE PUSH1 0x13 PUSH1 0x24 DUP3 ADD MSTORE PUSH19 0x151A58DAD95D08185B1C9958591E481CDBDB19 PUSH1 0x6A SHL PUSH1 0x44 DUP3 ADD MSTORE PUSH1 0x64 ADD PUSH2 0x4A3 JUMP JUMPDEST CALLER PUSH1 0x0 SWAP1 DUP2 MSTORE PUSH1 0x4 PUSH1 0x20 MSTORE PUSH1 0x40 SWAP1 KECCAK256 SLOAD ISZERO DUP1 PUSH2 0xA1D JUMPI POP PUSH1 0x0 SLOAD PUSH1 0x1 PUSH1 0x1 PUSH1 0xA0 SHL SUB AND CALLER EQ JUMPDEST PUSH2 0xA61 JUMPI PUSH1 0x40 MLOAD PUSH3 0x461BCD PUSH1 0xE5 SHL DUP2 MSTORE PUSH1 0x20 PUSH1 0x4 DUP3 ADD MSTORE PUSH1 0x15 PUSH1 0x24 DUP3 ADD MSTORE PUSH21 0x105B1C9958591E481BDDDB9CC818481D1A58DAD95D PUSH1 0x5A SHL PUSH1 0x44 DUP3 ADD MSTORE PUSH1 0x64 ADD PUSH2 0x4A3 JUMP JUMPDEST PUSH1 0x1 SLOAD CALLVALUE EQ PUSH2 0xAB2 JUMPI PUSH1 0x40 MLOAD PUSH3 0x461BCD PUSH1 0xE5 SHL DUP2 MSTORE PUSH1 0x20 PUSH1 0x4 DUP3 ADD MSTORE PUSH1 0x18 PUSH1 0x24 DUP3 ADD MSTORE PUSH32 0x496E636F7272656374207061796D656E7420616D6F756E740000000000000000 PUSH1 0x44 DUP3 ADD MSTORE PUSH1 0x64 ADD PUSH2 0x4A3 JUMP JUMPDEST PUSH1 0x0 DUP2 DUP2 MSTORE PUSH1 0x3 PUSH1 0x20 SWAP1 DUP2 MSTORE PUSH1 0x40 DUP1 DUP4 KECCAK256 DUP1 SLOAD PUSH1 0x1 PUSH1 0x1 PUSH1 0xA0 SHL SUB NOT AND CALLER SWAP1 DUP2 OR SWAP1 SWAP2 SSTORE DUP4 MSTORE PUSH1 0x4 SWAP1 SWAP2 MSTORE DUP1 DUP3 KECCAK256 DUP4 SWAP1 SSTORE DUP2 SLOAD SWAP1 MLOAD PUSH1 0x1 PUSH1 0x1 PUSH1 0xA0 SHL SUB SWAP1 SWAP2 AND SWAP1 CALLVALUE SWAP1 DUP4 DUP2 DUP2 DUP2 DUP6 DUP8 GAS CALL SWAP3 POP POP POP RETURNDATASIZE DUP1 PUSH1 0x0 DUP2 EQ PUSH2 0xB2D JUMPI PUSH1 0x40 MLOAD SWAP2 POP PUSH1 0x1F NOT PUSH1 0x3F RETURNDATASIZE ADD AND DUP3 ADD PUSH1 0x40 MSTORE RETURNDATASIZE DUP3 MSTORE RETURNDATASIZE PUSH1 0x0 PUSH1 0x20 DUP5 ADD RETURNDATACOPY PUSH2 0xB32 JUMP JUMPDEST PUSH1 0x60 SWAP2 POP JUMPDEST POP POP SWAP1 POP DUP1 PUSH2 0xB91 JUMPI PUSH1 0x40 MLOAD PUSH3 0x461BCD PUSH1 0xE5 SHL DUP2 MSTORE PUSH1 0x20 PUSH1 0x4 DUP3 ADD MSTORE PUSH1 0x25 PUSH1 0x24 DUP3 ADD MSTORE PUSH32 0x4661696C656420746F207472616E73666572207061796D656E7420746F206D61 PUSH1 0x44 DUP3 ADD MSTORE PUSH5 0x3730B3B2B9 PUSH1 0xD9 SHL PUSH1 0x64 DUP3 ADD MSTORE PUSH1 0x84 ADD PUSH2 0x4A3 JUMP JUMPDEST PUSH1 0x40 DUP1 MLOAD DUP4 DUP2 MSTORE CALLER PUSH1 0x20 DUP3 ADD MSTORE PUSH32 0x785F2865353AE960010300F584FC6C577B757A853AF69A99C769DF3C8232D3DE SWAP2 ADD PUSH2 0x72D JUMP JUMPDEST PUSH1 0x0 DUP1 PUSH1 0x1 JUMPDEST PUSH1 0x2 SLOAD DUP2 GT PUSH2 0xC11 JUMPI PUSH1 0x0 DUP2 DUP2 MSTORE PUSH1 0x3 PUSH1 0x20 MSTORE PUSH1 0x40 SWAP1 KECCAK256 SLOAD PUSH1 0x1 PUSH1 0x1 PUSH1 0xA0 SHL SUB AND PUSH2 0xBFF JUMPI DUP2 PUSH2 0xBFB DUP2 PUSH2 0x127B JUMP JUMPDEST SWAP3 POP POP JUMPDEST DUP1 PUSH2 0xC09 DUP2 PUSH2 0x127B JUMP JUMPDEST SWAP2 POP POP PUSH2 0xBCC JUMP JUMPDEST POP SWAP2 SWAP1 POP JUMP JUMPDEST PUSH1 0x0 DUP2 DUP2 MSTORE PUSH1 0x5 PUSH1 0x20 MSTORE PUSH1 0x40 SWAP1 KECCAK256 SLOAD PUSH2 0xC6A JUMPI PUSH1 0x40 MLOAD PUSH3 0x461BCD PUSH1 0xE5 SHL DUP2 MSTORE PUSH1 0x20 PUSH1 0x4 DUP3 ADD MSTORE PUSH1 0x15 PUSH1 0x24 DUP3 ADD MSTORE PUSH21 0x5469636B6574206E6F7420666F7220726573616C65 PUSH1 0x58 SHL PUSH1 0x44 DUP3 ADD MSTORE PUSH1 0x64 ADD PUSH2 0x4A3 JUMP JUMPDEST PUSH1 0x0 DUP2 DUP2 MSTORE PUSH1 0x5 PUSH1 0x20 MSTORE PUSH1 0x40 SWAP1 KECCAK256 SLOAD CALLVALUE EQ PUSH2 0xCBB JUMPI PUSH1 0x40 MLOAD PUSH3 0x461BCD PUSH1 0xE5 SHL DUP2 MSTORE PUSH1 0x20 PUSH1 0x4 DUP3 ADD MSTORE PUSH1 0x11 PUSH1 0x24 DUP3 ADD MSTORE PUSH17 0x125B98DBDC9C9958DD081C185E5B595B9D PUSH1 0x7A SHL PUSH1 0x44 DUP3 ADD MSTORE PUSH1 0x64 ADD PUSH2 0x4A3 JUMP JUMPDEST CALLER PUSH1 0x0 SWAP1 DUP2 MSTORE PUSH1 0x4 PUSH1 0x20 MSTORE PUSH1 0x40 SWAP1 KECCAK256 SLOAD ISZERO PUSH2 0xD10 JUMPI PUSH1 0x40 MLOAD PUSH3 0x461BCD PUSH1 0xE5 SHL DUP2 MSTORE PUSH1 0x20 PUSH1 0x4 DUP3 ADD MSTORE PUSH1 0x15 PUSH1 0x24 DUP3 ADD MSTORE PUSH21 0x105B1C9958591E481BDDDB9CC818481D1A58DAD95D PUSH1 0x5A SHL PUSH1 0x44 DUP3 ADD MSTORE PUSH1 0x64 ADD PUSH2 0x4A3 JUMP JUMPDEST PUSH1 0x0 DUP2 DUP2 MSTORE PUSH1 0x3 PUSH1 0x20 SWAP1 DUP2 MSTORE PUSH1 0x40 DUP1 DUP4 KECCAK256 SLOAD PUSH1 0x5 SWAP1 SWAP3 MSTORE DUP3 KECCAK256 SLOAD PUSH1 0x1 PUSH1 0x1 PUSH1 0xA0 SHL SUB SWAP1 SWAP2 AND SWAP2 PUSH1 0x64 PUSH2 0xD43 DUP4 PUSH1 0xA PUSH2 0x12D9 JUMP JUMPDEST PUSH2 0xD4D SWAP2 SWAP1 PUSH2 0x12F0 JUMP JUMPDEST SWAP1 POP PUSH1 0x0 PUSH2 0xD5B DUP3 DUP5 PUSH2 0x1312 JUMP JUMPDEST PUSH1 0x0 DUP1 SLOAD PUSH1 0x40 MLOAD SWAP3 SWAP4 POP SWAP1 SWAP2 PUSH1 0x1 PUSH1 0x1 PUSH1 0xA0 SHL SUB SWAP1 SWAP2 AND SWAP1 DUP5 SWAP1 DUP4 DUP2 DUP2 DUP2 DUP6 DUP8 GAS CALL SWAP3 POP POP POP RETURNDATASIZE DUP1 PUSH1 0x0 DUP2 EQ PUSH2 0xDAD JUMPI PUSH1 0x40 MLOAD SWAP2 POP PUSH1 0x1F NOT PUSH1 0x3F RETURNDATASIZE ADD AND DUP3 ADD PUSH1 0x40 MSTORE RETURNDATASIZE DUP3 MSTORE RETURNDATASIZE PUSH1 0x0 PUSH1 0x20 DUP5 ADD RETURNDATACOPY PUSH2 0xDB2 JUMP JUMPDEST PUSH1 0x60 SWAP2 POP JUMPDEST POP POP SWAP1 POP DUP1 PUSH2 0xE03 JUMPI PUSH1 0x40 MLOAD PUSH3 0x461BCD PUSH1 0xE5 SHL DUP2 MSTORE PUSH1 0x20 PUSH1 0x4 DUP3 ADD MSTORE PUSH1 0x1E PUSH1 0x24 DUP3 ADD MSTORE PUSH32 0x4661696C656420746F207472616E736665722073657276696365206665650000 PUSH1 0x44 DUP3 ADD MSTORE PUSH1 0x64 ADD PUSH2 0x4A3 JUMP JUMPDEST PUSH1 0x0 DUP6 PUSH1 0x1 PUSH1 0x1 PUSH1 0xA0 SHL SUB AND DUP4 PUSH1 0x40 MLOAD PUSH1 0x0 PUSH1 0x40 MLOAD DUP1 DUP4 SUB DUP2 DUP6 DUP8 GAS CALL SWAP3 POP POP POP RETURNDATASIZE DUP1 PUSH1 0x0 DUP2 EQ PUSH2 0xE50 JUMPI PUSH1 0x40 MLOAD SWAP2 POP PUSH1 0x1F NOT PUSH1 0x3F RETURNDATASIZE ADD AND DUP3 ADD PUSH1 0x40 MSTORE RETURNDATASIZE DUP3 MSTORE RETURNDATASIZE PUSH1 0x0 PUSH1 0x20 DUP5 ADD RETURNDATACOPY PUSH2 0xE55 JUMP JUMPDEST PUSH1 0x60 SWAP2 POP JUMPDEST POP POP SWAP1 POP DUP1 PUSH2 0xEB2 JUMPI PUSH1 0x40 MLOAD PUSH3 0x461BCD PUSH1 0xE5 SHL DUP2 MSTORE PUSH1 0x20 PUSH1 0x4 DUP3 ADD MSTORE PUSH1 0x24 DUP1 DUP3 ADD MSTORE PUSH32 0x4661696C656420746F207472616E73666572207061796D656E7420746F207365 PUSH1 0x44 DUP3 ADD MSTORE PUSH4 0x363632B9 PUSH1 0xE1 SHL PUSH1 0x64 DUP3 ADD MSTORE PUSH1 0x84 ADD PUSH2 0x4A3 JUMP JUMPDEST PUSH1 0x0 DUP8 DUP2 MSTORE PUSH1 0x3 PUSH1 0x20 SWAP1 DUP2 MSTORE PUSH1 0x40 DUP1 DUP4 KECCAK256 DUP1 SLOAD PUSH1 0x1 PUSH1 0x1 PUSH1 0xA0 SHL SUB NOT AND CALLER SWAP1 DUP2 OR SWAP1 SWAP2 SSTORE DUP1 DUP5 MSTORE PUSH1 0x4 DUP4 MSTORE DUP2 DUP5 KECCAK256 DUP12 SWAP1 SSTORE PUSH1 0x1 PUSH1 0x1 PUSH1 0xA0 SHL SUB DUP11 AND DUP1 DUP6 MSTORE DUP3 DUP6 KECCAK256 DUP6 SWAP1 SSTORE DUP12 DUP6 MSTORE PUSH1 0x5 DUP5 MSTORE DUP3 DUP6 KECCAK256 SWAP5 SWAP1 SWAP5 SSTORE DUP2 MLOAD DUP12 DUP2 MSTORE SWAP3 DUP4 ADD SWAP4 SWAP1 SWAP4 MSTORE DUP2 ADD SWAP2 SWAP1 SWAP2 MSTORE PUSH1 0x60 DUP2 ADD DUP7 SWAP1 MSTORE PUSH32 0xD59A36D8310FFB140214BE490BAF3FE8961F859A17199EC1BF9015C8B7340011 SWAP1 PUSH1 0x80 ADD PUSH1 0x40 MLOAD DUP1 SWAP2 SUB SWAP1 LOG1 POP POP POP POP POP POP POP JUMP JUMPDEST CALLER PUSH1 0x0 SWAP1 DUP2 MSTORE PUSH1 0x4 PUSH1 0x20 MSTORE PUSH1 0x40 DUP2 KECCAK256 SLOAD SWAP1 DUP2 SWAP1 SUB PUSH2 0xF83 JUMPI PUSH1 0x40 MLOAD PUSH3 0x461BCD PUSH1 0xE5 SHL DUP2 MSTORE PUSH1 0x4 ADD PUSH2 0x4A3 SWAP1 PUSH2 0x1235 JUMP JUMPDEST PUSH1 0x0 DUP3 GT PUSH2 0xFCC JUMPI PUSH1 0x40 MLOAD PUSH3 0x461BCD PUSH1 0xE5 SHL DUP2 MSTORE PUSH1 0x20 PUSH1 0x4 DUP3 ADD MSTORE PUSH1 0x16 PUSH1 0x24 DUP3 ADD MSTORE PUSH22 0x5072696365206D75737420626520706F736974697665 PUSH1 0x50 SHL PUSH1 0x44 DUP3 ADD MSTORE PUSH1 0x64 ADD PUSH2 0x4A3 JUMP JUMPDEST PUSH1 0x0 DUP2 DUP2 MSTORE PUSH1 0x5 PUSH1 0x20 SWAP1 DUP2 MSTORE PUSH1 0x40 SWAP2 DUP3 SWAP1 KECCAK256 DUP5 SWAP1 SSTORE DUP2 MLOAD DUP4 DUP2 MSTORE SWAP1 DUP2 ADD DUP5 SWAP1 MSTORE PUSH32 0xA365C2E4770E249B3DBB47DBF991EC623CED2F1DED6B65442DA12CADE5514E07 SWAP2 ADD PUSH2 0x72D JUMP JUMPDEST PUSH1 0x60 PUSH1 0x0 PUSH1 0x1 JUMPDEST PUSH1 0x2 SLOAD DUP2 GT PUSH2 0x1058 JUMPI PUSH1 0x0 DUP2 DUP2 MSTORE PUSH1 0x5 PUSH1 0x20 MSTORE PUSH1 0x40 SWAP1 KECCAK256 SLOAD ISZERO PUSH2 0x1046 JUMPI DUP2 PUSH2 0x1042 DUP2 PUSH2 0x127B JUMP JUMPDEST SWAP3 POP POP JUMPDEST DUP1 PUSH2 0x1050 DUP2 PUSH2 0x127B JUMP JUMPDEST SWAP2 POP POP PUSH2 0x101B JUMP JUMPDEST POP PUSH1 0x0 DUP2 PUSH8 0xFFFFFFFFFFFFFFFF DUP2 GT ISZERO PUSH2 0x1074 JUMPI PUSH2 0x1074 PUSH2 0x1294 JUMP JUMPDEST PUSH1 0x40 MLOAD SWAP1 DUP1 DUP3 MSTORE DUP1 PUSH1 0x20 MUL PUSH1 0x20 ADD DUP3 ADD PUSH1 0x40 MSTORE DUP1 ISZERO PUSH2 0x109D JUMPI DUP2 PUSH1 0x20 ADD PUSH1 0x20 DUP3 MUL DUP1 CALLDATASIZE DUP4 CALLDATACOPY ADD SWAP1 POP JUMPDEST POP SWAP1 POP PUSH1 0x0 PUSH1 0x1 JUMPDEST PUSH1 0x2 SLOAD DUP2 GT PUSH2 0x835 JUMPI PUSH1 0x0 DUP2 DUP2 MSTORE PUSH1 0x5 PUSH1 0x20 MSTORE PUSH1 0x40 SWAP1 KECCAK256 SLOAD ISZERO PUSH2 0x10EE JUMPI DUP1 DUP4 DUP4 DUP2 MLOAD DUP2 LT PUSH2 0x10D5 JUMPI PUSH2 0x10D5 PUSH2 0x12AA JUMP JUMPDEST PUSH1 0x20 SWAP1 DUP2 MUL SWAP2 SWAP1 SWAP2 ADD ADD MSTORE DUP2 PUSH2 0x10EA DUP2 PUSH2 0x127B JUMP JUMPDEST SWAP3 POP POP JUMPDEST DUP1 PUSH2 0x10F8 DUP2 PUSH2 0x127B JUMP JUMPDEST SWAP2 POP POP PUSH2 0x10A5 JUMP JUMPDEST PUSH1 0x0 SLOAD PUSH1 0x1 PUSH1 0x1 PUSH1 0xA0 SHL SUB AND CALLER EQ PUSH2 0x115A JUMPI PUSH1 0x40 MLOAD PUSH3 0x461BCD PUSH1 0xE5 SHL DUP2 MSTORE PUSH1 0x20 PUSH1 0x4 DUP3 ADD MSTORE PUSH1 0x1D PUSH1 0x24 DUP3 ADD MSTORE PUSH32 0x4F6E6C79206D616E616765722063616E20757064617465207072696365000000 PUSH1 0x44 DUP3 ADD MSTORE PUSH1 0x64 ADD PUSH2 0x4A3 JUMP JUMPDEST PUSH1 0x0 DUP2 GT PUSH2 0x11A3 JUMPI PUSH1 0x40 MLOAD PUSH3 0x461BCD PUSH1 0xE5 SHL DUP2 MSTORE PUSH1 0x20 PUSH1 0x4 DUP3 ADD MSTORE PUSH1 0x16 PUSH1 0x24 DUP3 ADD MSTORE PUSH22 0x5072696365206D75737420626520706F736974697665 PUSH1 0x50 SHL PUSH1 0x44 DUP3 ADD MSTORE PUSH1 0x64 ADD PUSH2 0x4A3 JUMP JUMPDEST PUSH1 0x1 SSTORE JUMP JUMPDEST PUSH1 0x0 PUSH1 0x20 DUP3 DUP5 SUB SLT ISZERO PUSH2 0x11BA JUMPI PUSH1 0x0 DUP1 REVERT JUMPDEST DUP2 CALLDATALOAD PUSH1 0x1 PUSH1 0x1 PUSH1 0xA0 SHL SUB DUP2 AND DUP2 EQ PUSH2 0x11D1 JUMPI PUSH1 0x0 DUP1 REVERT JUMPDEST SWAP4 SWAP3 POP POP POP JUMP JUMPDEST PUSH1 0x0 PUSH1 0x20 DUP3 DUP5 SUB SLT ISZERO PUSH2 0x11EA JUMPI PUSH1 0x0 DUP1 REVERT JUMPDEST POP CALLDATALOAD SWAP2 SWAP1 POP JUMP JUMPDEST PUSH1 0x20 DUP1 DUP3 MSTORE DUP3 MLOAD DUP3 DUP3 ADD DUP2 SWAP1 MSTORE PUSH1 0x0 SWAP2 SWAP1 DUP5 DUP3 ADD SWAP1 PUSH1 0x40 DUP6 ADD SWAP1 DUP5 JUMPDEST DUP2 DUP2 LT ISZERO PUSH2 0x1229 JUMPI DUP4 MLOAD DUP4 MSTORE SWAP3 DUP5 ADD SWAP3 SWAP2 DUP5 ADD SWAP2 PUSH1 0x1 ADD PUSH2 0x120D JUMP JUMPDEST POP SWAP1 SWAP7 SWAP6 POP POP POP POP POP POP JUMP JUMPDEST PUSH1 0x20 DUP1 DUP3 MSTORE PUSH1 0x16 SWAP1 DUP3 ADD MSTORE PUSH22 0x165BDD48191BDB89DD081BDDDB8818481D1A58DAD95D PUSH1 0x52 SHL PUSH1 0x40 DUP3 ADD MSTORE PUSH1 0x60 ADD SWAP1 JUMP JUMPDEST PUSH4 0x4E487B71 PUSH1 0xE0 SHL PUSH1 0x0 MSTORE PUSH1 0x11 PUSH1 0x4 MSTORE PUSH1 0x24 PUSH1 0x0 REVERT JUMPDEST PUSH1 0x0 PUSH1 0x1 DUP3 ADD PUSH2 0x128D JUMPI PUSH2 0x128D PUSH2 0x1265 JUMP JUMPDEST POP PUSH1 0x1 ADD SWAP1 JUMP JUMPDEST PUSH4 0x4E487B71 PUSH1 0xE0 SHL PUSH1 0x0 MSTORE PUSH1 0x41 PUSH1 0x4 MSTORE PUSH1 0x24 PUSH1 0x0 REVERT JUMPDEST PUSH4 0x4E487B71 PUSH1 0xE0 SHL PUSH1 0x0 MSTORE PUSH1 0x32 PUSH1 0x4 MSTORE PUSH1 0x24 PUSH1 0x0 REVERT JUMPDEST DUP1 DUP3 ADD DUP1 DUP3 GT ISZERO PUSH2 0x12D3 JUMPI PUSH2 0x12D3 PUSH2 0x1265 JUMP JUMPDEST SWAP3 SWAP2 POP POP JUMP JUMPDEST DUP1 DUP3 MUL DUP2 ISZERO DUP3 DUP3 DIV DUP5 EQ OR PUSH2 0x12D3 JUMPI PUSH2 0x12D3 PUSH2 0x1265 JUMP JUMPDEST PUSH1 0x0 DUP3 PUSH2 0x130D JUMPI PUSH4 0x4E487B71 PUSH1 0xE0 SHL PUSH1 0x0 MSTORE PUSH1 0x12 PUSH1 0x4 MSTORE PUSH1 0x24 PUSH1 0x0 REVERT JUMPDEST POP DIV SWAP1 JUMP JUMPDEST DUP2 DUP2 SUB DUP2 DUP2 GT ISZERO PUSH2 0x12D3 JUMPI PUSH2 0x12D3 PUSH2 0x1265 JUMP INVALID LOG2 PUSH5 0x6970667358 0x22 SLT KECCAK256 0xCA 0xE2 PUSH5 0x1A9765AF7D SWAP4 POP 0xC9 0x5F PUSH29 0x813A0D41C30AC51A8D645C2482A10618A550C364736F6C634300081100 CALLER "},"methodIdentifiers":{"acceptResale(uint256)":"943ba212","acceptSwap(uint256)":"1bf33004","addTickets(uint256)":"5ff3337f","buyTicket(uint256)":"67dd74ca","checkResale()":"c4a4be83","getAvailableTickets()":"5a8acacc","getManagerBalance()":"42fd9246","getTicketDetails(uint256)":"24c14160","getTicketOf(address)":"0412f4ab","getTicketPriceInEther()":"0a144fbf","getTotalAvailableTickets()":"91993859","isManager(address)":"f3ae2415","manager()":"481c6a75","offerSwap(uint256)":"406b2c2c","resaleTicket(uint256)":"a3c1a1fe","swapOffers(uint256)":"a13f1c62","ticketOwners(uint256)":"eb2dbcf6","ticketPrice()":"1209b1f6","ticketsForResale(uint256)":"407724ac","ticketsOwned(address)":"951e2021","totalTickets()":"dd11247e","updateTicketPrice(uint256)":"f02137c8"}}}}}