{
  "_format": "hh-sol-artifact-1",
  "contractName": "TicketSale",
  "sourceName": "contracts/TicketSale.sol",
  "abi": [
    {
      "inputs": [
        {
          "internalType": "uint256",
          "name": "numTickets",
          "type": "uint256"
        },
        {
          "internalType": "uint256",
          "name": "price",
          "type": "uint256"
        }
      ],
      "stateMutability": "nonpayable",
      "type": "constructor"
    },
    {
      "anonymous": false,
      "inputs": [
        {
          "indexed": false,
          "internalType": "uint256",
          "name": "ticketId",
          "type": "uint256"
        },
        {
          "indexed": false,
          "internalType": "address",
          "name": "buyer",
          "type": "address"
        }
      ],
      "name": "TicketPurchased",
      "type": "event"
    },
    {
      "anonymous": false,
      "inputs": [
        {
          "indexed": false,
          "internalType": "uint256",
          "name": "ticketId",
          "type": "uint256"
        },
        {
          "indexed": false,
          "internalType": "uint256",
          "name": "price",
          "type": "uint256"
        }
      ],
      "name": "TicketResaleListed",
      "type": "event"
    },
    {
      "anonymous": false,
      "inputs": [
        {
          "indexed": false,
          "internalType": "uint256",
          "name": "ticketId",
          "type": "uint256"
        },
        {
          "indexed": false,
          "internalType": "address",
          "name": "from",
          "type": "address"
        },
        {
          "indexed": false,
          "internalType": "address",
          "name": "to",
          "type": "address"
        },
        {
          "indexed": false,
          "internalType": "uint256",
          "name": "price",
          "type": "uint256"
        }
      ],
      "name": "TicketResold",
      "type": "event"
    },
    {
      "anonymous": false,
      "inputs": [
        {
          "indexed": false,
          "internalType": "uint256",
          "name": "ticketId",
          "type": "uint256"
        },
        {
          "indexed": false,
          "internalType": "address",
          "name": "offerer",
          "type": "address"
        }
      ],
      "name": "TicketSwapOffered",
      "type": "event"
    },
    {
      "anonymous": false,
      "inputs": [
        {
          "indexed": false,
          "internalType": "uint256",
          "name": "ticket1Id",
          "type": "uint256"
        },
        {
          "indexed": false,
          "internalType": "uint256",
          "name": "ticket2Id",
          "type": "uint256"
        }
      ],
      "name": "TicketSwapped",
      "type": "event"
    },
    {
      "inputs": [
        {
          "internalType": "uint256",
          "name": "ticketId",
          "type": "uint256"
        }
      ],
      "name": "acceptResale",
      "outputs": [],
      "stateMutability": "payable",
      "type": "function"
    },
    {
      "inputs": [
        {
          "internalType": "uint256",
          "name": "ticketId",
          "type": "uint256"
        }
      ],
      "name": "acceptSwap",
      "outputs": [],
      "stateMutability": "nonpayable",
      "type": "function"
    },
    {
      "inputs": [
        {
          "internalType": "uint256",
          "name": "additionalTickets",
          "type": "uint256"
        }
      ],
      "name": "addTickets",
      "outputs": [],
      "stateMutability": "nonpayable",
      "type": "function"
    },
    {
      "inputs": [
        {
          "internalType": "uint256",
          "name": "ticketId",
          "type": "uint256"
        }
      ],
      "name": "buyTicket",
      "outputs": [],
      "stateMutability": "payable",
      "type": "function"
    },
    {
      "inputs": [],
      "name": "checkResale",
      "outputs": [
        {
          "internalType": "uint256[]",
          "name": "",
          "type": "uint256[]"
        }
      ],
      "stateMutability": "view",
      "type": "function"
    },
    {
      "inputs": [],
      "name": "getAvailableTickets",
      "outputs": [
        {
          "internalType": "uint256[]",
          "name": "",
          "type": "uint256[]"
        }
      ],
      "stateMutability": "view",
      "type": "function"
    },
    {
      "inputs": [
        {
          "internalType": "uint256",
          "name": "ticketId",
          "type": "uint256"
        }
      ],
      "name": "getTicketDetails",
      "outputs": [
        {
          "internalType": "address",
          "name": "owner",
          "type": "address"
        },
        {
          "internalType": "bool",
          "name": "isForSale",
          "type": "bool"
        },
        {
          "internalType": "uint256",
          "name": "resalePrice",
          "type": "uint256"
        }
      ],
      "stateMutability": "view",
      "type": "function"
    },
    {
      "inputs": [
        {
          "internalType": "address",
          "name": "person",
          "type": "address"
        }
      ],
      "name": "getTicketOf",
      "outputs": [
        {
          "internalType": "uint256",
          "name": "",
          "type": "uint256"
        }
      ],
      "stateMutability": "view",
      "type": "function"
    },
    {
      "inputs": [],
      "name": "getTicketPriceInEther",
      "outputs": [
        {
          "internalType": "uint256",
          "name": "",
          "type": "uint256"
        }
      ],
      "stateMutability": "view",
      "type": "function"
    },
    {
      "inputs": [],
      "name": "getTotalAvailableTickets",
      "outputs": [
        {
          "internalType": "uint256",
          "name": "",
          "type": "uint256"
        }
      ],
      "stateMutability": "view",
      "type": "function"
    },
    {
      "inputs": [],
      "name": "manager",
      "outputs": [
        {
          "internalType": "address",
          "name": "",
          "type": "address"
        }
      ],
      "stateMutability": "view",
      "type": "function"
    },
    {
      "inputs": [
        {
          "internalType": "uint256",
          "name": "ticketId",
          "type": "uint256"
        }
      ],
      "name": "offerSwap",
      "outputs": [],
      "stateMutability": "nonpayable",
      "type": "function"
    },
    {
      "inputs": [
        {
          "internalType": "uint256",
          "name": "price",
          "type": "uint256"
        }
      ],
      "name": "resaleTicket",
      "outputs": [],
      "stateMutability": "nonpayable",
      "type": "function"
    },
    {
      "inputs": [
        {
          "internalType": "uint256",
          "name": "",
          "type": "uint256"
        }
      ],
      "name": "swapOffers",
      "outputs": [
        {
          "internalType": "address",
          "name": "",
          "type": "address"
        }
      ],
      "stateMutability": "view",
      "type": "function"
    },
    {
      "inputs": [
        {
          "internalType": "uint256",
          "name": "",
          "type": "uint256"
        }
      ],
      "name": "ticketOwners",
      "outputs": [
        {
          "internalType": "address",
          "name": "",
          "type": "address"
        }
      ],
      "stateMutability": "view",
      "type": "function"
    },
    {
      "inputs": [],
      "name": "ticketPrice",
      "outputs": [
        {
          "internalType": "uint256",
          "name": "",
          "type": "uint256"
        }
      ],
      "stateMutability": "view",
      "type": "function"
    },
    {
      "inputs": [
        {
          "internalType": "uint256",
          "name": "",
          "type": "uint256"
        }
      ],
      "name": "ticketsForResale",
      "outputs": [
        {
          "internalType": "uint256",
          "name": "",
          "type": "uint256"
        }
      ],
      "stateMutability": "view",
      "type": "function"
    },
    {
      "inputs": [
        {
          "internalType": "address",
          "name": "",
          "type": "address"
        }
      ],
      "name": "ticketsOwned",
      "outputs": [
        {
          "internalType": "uint256",
          "name": "",
          "type": "uint256"
        }
      ],
      "stateMutability": "view",
      "type": "function"
    },
    {
      "inputs": [],
      "name": "totalTickets",
      "outputs": [
        {
          "internalType": "uint256",
          "name": "",
          "type": "uint256"
        }
      ],
      "stateMutability": "view",
      "type": "function"
    },
    {
      "inputs": [
        {
          "internalType": "uint256",
          "name": "newPrice",
          "type": "uint256"
        }
      ],
      "name": "updateTicketPrice",
      "outputs": [],
      "stateMutability": "nonpayable",
      "type": "function"
    }
  ],
  "bytecode": "0x608060405234801561001057600080fd5b50604051620012e1380380620012e18339810160408190526100319161013b565b600082116100915760405162461bcd60e51b815260206004820152602260248201527f4e756d626572206f66207469636b657473206d75737420626520706f73697469604482015261766560f01b60648201526084015b60405180910390fd5b600081116100e15760405162461bcd60e51b815260206004820152601660248201527f5072696365206d75737420626520706f736974697665000000000000000000006044820152606401610088565b600080546001600160a01b03191633179055600181815560028390555b82811161013357600081815260036020526040902080546001600160a01b03191690558061012b8161015f565b9150506100fe565b505050610186565b6000806040838503121561014e57600080fd5b505080516020909101519092909150565b60006001820161017f57634e487b7160e01b600052601160045260246000fd5b5060010190565b61114b80620001966000396000f3fe60806040526004361061011f5760003560e01c806367dd74ca116100a0578063a3c1a1fe11610064578063a3c1a1fe14610364578063c4a4be8314610384578063dd11247e14610399578063eb2dbcf6146103af578063f02137c8146103e557600080fd5b806367dd74ca146102c657806391993859146102d9578063943ba212146102ee578063951e202114610301578063a13f1c621461032e57600080fd5b8063406b2c2c116100e7578063406b2c2c146101ff578063407724ac1461021f578063481c6a751461024c5780635a8acacc146102845780635ff3337f146102a657600080fd5b80630412f4ab146101245780630a144fbf1461016d5780631209b1f6146101825780631bf330041461019857806324c14160146101ba575b600080fd5b34801561013057600080fd5b5061015a61013f366004610f98565b6001600160a01b031660009081526004602052604090205490565b6040519081526020015b60405180910390f35b34801561017957600080fd5b5060015461015a565b34801561018e57600080fd5b5061015a60015481565b3480156101a457600080fd5b506101b86101b3366004610fc8565b610405565b005b3480156101c657600080fd5b506101da6101d5366004610fc8565b610552565b604080516001600160a01b039094168452911515602084015290820152606001610164565b34801561020b57600080fd5b506101b861021a366004610fc8565b6105d9565b34801561022b57600080fd5b5061015a61023a366004610fc8565b60056020526000908152604090205481565b34801561025857600080fd5b5060005461026c906001600160a01b031681565b6040516001600160a01b039091168152602001610164565b34801561029057600080fd5b506102996106cb565b6040516101649190610fe1565b3480156102b257600080fd5b506101b86102c1366004610fc8565b6107d0565b6101b86102d4366004610fc8565b6108dc565b3480156102e557600080fd5b5061015a610a9b565b6101b86102fc366004610fc8565b610aec565b34801561030d57600080fd5b5061015a61031c366004610f98565b60046020526000908152604090205481565b34801561033a57600080fd5b5061026c610349366004610fc8565b6006602052600090815260409020546001600160a01b031681565b34801561037057600080fd5b506101b861037f366004610fc8565b610d43565b34801561039057600080fd5b50610299610e04565b3480156103a557600080fd5b5061015a60025481565b3480156103bb57600080fd5b5061026c6103ca366004610fc8565b6003602052600090815260409020546001600160a01b031681565b3480156103f157600080fd5b506101b8610400366004610fc8565b610ef0565b336000908152600460205260408120549081900361043e5760405162461bcd60e51b815260040161043590611025565b60405180910390fd5b6000828152600360209081526040808320548484526006909252909120546001600160a01b039081169116146104ac5760405162461bcd60e51b81526020600482015260136024820152722737903b30b634b21039bbb0b81037b33332b960691b6044820152606401610435565b6000828152600360209081526040808320805485855282852080546001600160a01b039092166001600160a01b031992831681179091558254339083168117909355918552600484528285208790558185528285208690558585526006845293829020805490941690935580518481529182018590527f3c5c3ca34136e6c4e2255ca1f42341f16cf924acaee035adeb287bda89025af6910160405180910390a1505050565b6000806000808411801561056857506002548411155b6105a85760405162461bcd60e51b8152602060048201526011602482015270125b9d985b1a59081d1a58dad95d081251607a1b6044820152606401610435565b5050506000908152600360209081526040808320546005909252909120546001600160a01b03909116918115159190565b33600090815260046020526040812054908190036106095760405162461bcd60e51b815260040161043590611025565b6000828152600360205260409020546001600160a01b031661066d5760405162461bcd60e51b815260206004820152601760248201527f546172676574207469636b6574206e6f74206f776e65640000000000000000006044820152606401610435565b60008281526006602090815260409182902080546001600160a01b031916339081179091558251858152918201527f0c429c57e135043f6747763fe5b3b53a88a48f2f03c709eaeb8634d2bf3d3f7c91015b60405180910390a15050565b6060600060015b6002548111610717576000818152600360205260409020546001600160a01b031661070557816107018161106b565b9250505b8061070f8161106b565b9150506106d2565b5060008167ffffffffffffffff81111561073357610733611084565b60405190808252806020026020018201604052801561075c578160200160208202803683370190505b509050600060015b60025481116107c7576000818152600360205260409020546001600160a01b03166107b5578083838151811061079c5761079c61109a565b6020908102919091010152816107b18161106b565b9250505b806107bf8161106b565b915050610764565b50909392505050565b6000546001600160a01b0316331461082a5760405162461bcd60e51b815260206004820152601c60248201527f4f6e6c79206d616e616765722063616e20616464207469636b657473000000006044820152606401610435565b6000811161087a5760405162461bcd60e51b815260206004820152601c60248201527f4d75737420616464206174206c65617374206f6e65207469636b6574000000006044820152606401610435565b60008160025461088a91906110b0565b90506000600254600161089d91906110b0565b90505b8181116108d557600081815260036020526040902080546001600160a01b0319169055806108cd8161106b565b9150506108a0565b5060025550565b6000811180156108ee57506002548111155b61092e5760405162461bcd60e51b8152602060048201526011602482015270125b9d985b1a59081d1a58dad95d081251607a1b6044820152606401610435565b6000818152600360205260409020546001600160a01b0316156109895760405162461bcd60e51b8152602060048201526013602482015272151a58dad95d08185b1c9958591e481cdbdb19606a1b6044820152606401610435565b33600090815260046020526040902054156109de5760405162461bcd60e51b8152602060048201526015602482015274105b1c9958591e481bdddb9cc818481d1a58dad95d605a1b6044820152606401610435565b6001543414610a2f5760405162461bcd60e51b815260206004820152601860248201527f496e636f7272656374207061796d656e7420616d6f756e7400000000000000006044820152606401610435565b600081815260036020908152604080832080546001600160a01b0319163390811790915580845260048352928190208490558051848152918201929092527f785f2865353ae960010300f584fc6c577b757a853af69a99c769df3c8232d3de910160405180910390a150565b60008060015b6002548111610ae6576000818152600360205260409020546001600160a01b0316610ad45781610ad08161106b565b9250505b80610ade8161106b565b915050610aa1565b50919050565b600081815260056020526040902054610b3f5760405162461bcd60e51b81526020600482015260156024820152745469636b6574206e6f7420666f7220726573616c6560581b6044820152606401610435565b6000818152600560205260409020543414610b905760405162461bcd60e51b8152602060048201526011602482015270125b98dbdc9c9958dd081c185e5b595b9d607a1b6044820152606401610435565b3360009081526004602052604090205415610be55760405162461bcd60e51b8152602060048201526015602482015274105b1c9958591e481bdddb9cc818481d1a58dad95d605a1b6044820152606401610435565b60008181526003602090815260408083205460059092528220546001600160a01b03909116916064610c1883600a6110c9565b610c2291906110e0565b90506000610c308284611102565b6040519091506001600160a01b0385169082156108fc029083906000818181858888f19350505050158015610c69573d6000803e3d6000fd5b50600080546040516001600160a01b039091169184156108fc02918591818181858888f19350505050158015610ca3573d6000803e3d6000fd5b50600085815260036020908152604080832080546001600160a01b03191633908117909155808452600483528184208990556001600160a01b0388168085528285208590558985526005845282852094909455815189815292830193909352810191909152606081018490527fd59a36d8310ffb140214be490baf3fe8961f859a17199ec1bf9015c8b73400119060800160405180910390a15050505050565b3360009081526004602052604081205490819003610d735760405162461bcd60e51b815260040161043590611025565b60008211610dbc5760405162461bcd60e51b81526020600482015260166024820152755072696365206d75737420626520706f73697469766560501b6044820152606401610435565b60008181526005602090815260409182902084905581518381529081018490527fa365c2e4770e249b3dbb47dbf991ec623ced2f1ded6b65442da12cade5514e0791016106bf565b6060600060015b6002548111610e485760008181526005602052604090205415610e365781610e328161106b565b9250505b80610e408161106b565b915050610e0b565b5060008167ffffffffffffffff811115610e6457610e64611084565b604051908082528060200260200182016040528015610e8d578160200160208202803683370190505b509050600060015b60025481116107c75760008181526005602052604090205415610ede5780838381518110610ec557610ec561109a565b602090810291909101015281610eda8161106b565b9250505b80610ee88161106b565b915050610e95565b6000546001600160a01b03163314610f4a5760405162461bcd60e51b815260206004820152601d60248201527f4f6e6c79206d616e616765722063616e207570646174652070726963650000006044820152606401610435565b60008111610f935760405162461bcd60e51b81526020600482015260166024820152755072696365206d75737420626520706f73697469766560501b6044820152606401610435565b600155565b600060208284031215610faa57600080fd5b81356001600160a01b0381168114610fc157600080fd5b9392505050565b600060208284031215610fda57600080fd5b5035919050565b6020808252825182820181905260009190848201906040850190845b8181101561101957835183529284019291840191600101610ffd565b50909695505050505050565b602080825260169082015275165bdd48191bdb89dd081bdddb8818481d1a58dad95d60521b604082015260600190565b634e487b7160e01b600052601160045260246000fd5b60006001820161107d5761107d611055565b5060010190565b634e487b7160e01b600052604160045260246000fd5b634e487b7160e01b600052603260045260246000fd5b808201808211156110c3576110c3611055565b92915050565b80820281158282048414176110c3576110c3611055565b6000826110fd57634e487b7160e01b600052601260045260246000fd5b500490565b818103818111156110c3576110c361105556fea26469706673582212208513de9b3462e8213963a7b3d6cfbadcec94325283c580f574840f819c5a97b264736f6c63430008130033",
  "linkReferences": {},
  "deployedLinkReferences": {}
}