{
  "_format": "hh-sol-artifact-1",
  "contractName": "TicketSale",
  "sourceName": "contracts/TicketSale.sol",
  "abi": [
    {
      "inputs": [
        {
          "internalType": "uint256",
          "name": "numTickets",
          "type": "uint256"
        },
        {
          "internalType": "uint256",
          "name": "price",
          "type": "uint256"
        }
      ],
      "stateMutability": "nonpayable",
      "type": "constructor"
    },
    {
      "anonymous": false,
      "inputs": [
        {
          "indexed": false,
          "internalType": "uint256",
          "name": "ticketId",
          "type": "uint256"
        },
        {
          "indexed": false,
          "internalType": "address",
          "name": "buyer",
          "type": "address"
        }
      ],
      "name": "TicketPurchased",
      "type": "event"
    },
    {
      "anonymous": false,
      "inputs": [
        {
          "indexed": false,
          "internalType": "uint256",
          "name": "ticketId",
          "type": "uint256"
        },
        {
          "indexed": false,
          "internalType": "uint256",
          "name": "price",
          "type": "uint256"
        }
      ],
      "name": "TicketResaleListed",
      "type": "event"
    },
    {
      "anonymous": false,
      "inputs": [
        {
          "indexed": false,
          "internalType": "uint256",
          "name": "ticketId",
          "type": "uint256"
        },
        {
          "indexed": false,
          "internalType": "address",
          "name": "from",
          "type": "address"
        },
        {
          "indexed": false,
          "internalType": "address",
          "name": "to",
          "type": "address"
        },
        {
          "indexed": false,
          "internalType": "uint256",
          "name": "price",
          "type": "uint256"
        }
      ],
      "name": "TicketResold",
      "type": "event"
    },
    {
      "anonymous": false,
      "inputs": [
        {
          "indexed": false,
          "internalType": "uint256",
          "name": "ticketId",
          "type": "uint256"
        },
        {
          "indexed": false,
          "internalType": "address",
          "name": "offerer",
          "type": "address"
        }
      ],
      "name": "TicketSwapOffered",
      "type": "event"
    },
    {
      "anonymous": false,
      "inputs": [
        {
          "indexed": false,
          "internalType": "uint256",
          "name": "ticket1Id",
          "type": "uint256"
        },
        {
          "indexed": false,
          "internalType": "uint256",
          "name": "ticket2Id",
          "type": "uint256"
        }
      ],
      "name": "TicketSwapped",
      "type": "event"
    },
    {
      "stateMutability": "payable",
      "type": "fallback"
    },
    {
      "inputs": [
        {
          "internalType": "uint256",
          "name": "ticketId",
          "type": "uint256"
        }
      ],
      "name": "acceptResale",
      "outputs": [],
      "stateMutability": "payable",
      "type": "function"
    },
    {
      "inputs": [
        {
          "internalType": "uint256",
          "name": "ticketId",
          "type": "uint256"
        }
      ],
      "name": "acceptSwap",
      "outputs": [],
      "stateMutability": "nonpayable",
      "type": "function"
    },
    {
      "inputs": [
        {
          "internalType": "uint256",
          "name": "additionalTickets",
          "type": "uint256"
        }
      ],
      "name": "addTickets",
      "outputs": [],
      "stateMutability": "nonpayable",
      "type": "function"
    },
    {
      "inputs": [
        {
          "internalType": "uint256",
          "name": "ticketId",
          "type": "uint256"
        }
      ],
      "name": "buyTicket",
      "outputs": [],
      "stateMutability": "payable",
      "type": "function"
    },
    {
      "inputs": [],
      "name": "checkResale",
      "outputs": [
        {
          "internalType": "uint256[]",
          "name": "",
          "type": "uint256[]"
        }
      ],
      "stateMutability": "view",
      "type": "function"
    },
    {
      "inputs": [],
      "name": "getAvailableTickets",
      "outputs": [
        {
          "internalType": "uint256[]",
          "name": "",
          "type": "uint256[]"
        }
      ],
      "stateMutability": "view",
      "type": "function"
    },
    {
      "inputs": [],
      "name": "getManagerBalance",
      "outputs": [
        {
          "internalType": "uint256",
          "name": "",
          "type": "uint256"
        }
      ],
      "stateMutability": "view",
      "type": "function"
    },
    {
      "inputs": [
        {
          "internalType": "uint256",
          "name": "ticketId",
          "type": "uint256"
        }
      ],
      "name": "getTicketDetails",
      "outputs": [
        {
          "internalType": "address",
          "name": "owner",
          "type": "address"
        },
        {
          "internalType": "bool",
          "name": "isForSale",
          "type": "bool"
        },
        {
          "internalType": "uint256",
          "name": "resalePrice",
          "type": "uint256"
        }
      ],
      "stateMutability": "view",
      "type": "function"
    },
    {
      "inputs": [
        {
          "internalType": "address",
          "name": "person",
          "type": "address"
        }
      ],
      "name": "getTicketOf",
      "outputs": [
        {
          "internalType": "uint256",
          "name": "",
          "type": "uint256"
        }
      ],
      "stateMutability": "view",
      "type": "function"
    },
    {
      "inputs": [],
      "name": "getTicketPriceInEther",
      "outputs": [
        {
          "internalType": "uint256",
          "name": "",
          "type": "uint256"
        }
      ],
      "stateMutability": "view",
      "type": "function"
    },
    {
      "inputs": [],
      "name": "getTotalAvailableTickets",
      "outputs": [
        {
          "internalType": "uint256",
          "name": "",
          "type": "uint256"
        }
      ],
      "stateMutability": "view",
      "type": "function"
    },
    {
      "inputs": [
        {
          "internalType": "address",
          "name": "account",
          "type": "address"
        }
      ],
      "name": "isManager",
      "outputs": [
        {
          "internalType": "bool",
          "name": "",
          "type": "bool"
        }
      ],
      "stateMutability": "view",
      "type": "function"
    },
    {
      "inputs": [],
      "name": "manager",
      "outputs": [
        {
          "internalType": "address",
          "name": "",
          "type": "address"
        }
      ],
      "stateMutability": "view",
      "type": "function"
    },
    {
      "inputs": [
        {
          "internalType": "uint256",
          "name": "targetTicketId",
          "type": "uint256"
        }
      ],
      "name": "offerSwap",
      "outputs": [],
      "stateMutability": "nonpayable",
      "type": "function"
    },
    {
      "inputs": [
        {
          "internalType": "uint256",
          "name": "price",
          "type": "uint256"
        }
      ],
      "name": "resaleTicket",
      "outputs": [],
      "stateMutability": "nonpayable",
      "type": "function"
    },
    {
      "inputs": [
        {
          "internalType": "uint256",
          "name": "",
          "type": "uint256"
        }
      ],
      "name": "swapOffers",
      "outputs": [
        {
          "internalType": "address",
          "name": "",
          "type": "address"
        }
      ],
      "stateMutability": "view",
      "type": "function"
    },
    {
      "inputs": [
        {
          "internalType": "uint256",
          "name": "",
          "type": "uint256"
        }
      ],
      "name": "ticketOwners",
      "outputs": [
        {
          "internalType": "address",
          "name": "",
          "type": "address"
        }
      ],
      "stateMutability": "view",
      "type": "function"
    },
    {
      "inputs": [],
      "name": "ticketPrice",
      "outputs": [
        {
          "internalType": "uint256",
          "name": "",
          "type": "uint256"
        }
      ],
      "stateMutability": "view",
      "type": "function"
    },
    {
      "inputs": [
        {
          "internalType": "uint256",
          "name": "",
          "type": "uint256"
        }
      ],
      "name": "ticketsForResale",
      "outputs": [
        {
          "internalType": "uint256",
          "name": "",
          "type": "uint256"
        }
      ],
      "stateMutability": "view",
      "type": "function"
    },
    {
      "inputs": [
        {
          "internalType": "address",
          "name": "",
          "type": "address"
        }
      ],
      "name": "ticketsOwned",
      "outputs": [
        {
          "internalType": "uint256",
          "name": "",
          "type": "uint256"
        }
      ],
      "stateMutability": "view",
      "type": "function"
    },
    {
      "inputs": [],
      "name": "totalTickets",
      "outputs": [
        {
          "internalType": "uint256",
          "name": "",
          "type": "uint256"
        }
      ],
      "stateMutability": "view",
      "type": "function"
    },
    {
      "inputs": [
        {
          "internalType": "uint256",
          "name": "newPrice",
          "type": "uint256"
        }
      ],
      "name": "updateTicketPrice",
      "outputs": [],
      "stateMutability": "nonpayable",
      "type": "function"
    },
    {
      "stateMutability": "payable",
      "type": "receive"
    }
  ],
  "bytecode": "0x60806040523480156200001157600080fd5b506040516200156738038062001567833981016040819052620000349162000146565b60008211620000955760405162461bcd60e51b815260206004820152602260248201527f4e756d626572206f66207469636b657473206d75737420626520706f73697469604482015261766560f01b60648201526084015b60405180910390fd5b60008111620000e75760405162461bcd60e51b815260206004820152601660248201527f5072696365206d75737420626520706f7369746976650000000000000000000060448201526064016200008c565b600080546001600160a01b03191633179055600181815560028390555b8281116200013d57600081815260036020526040902080546001600160a01b03191690558062000134816200016b565b91505062000104565b50505062000193565b600080604083850312156200015a57600080fd5b505080516020909101519092909150565b6000600182016200018c57634e487b7160e01b600052601160045260246000fd5b5060010190565b6113c480620001a36000396000f3fe60806040526004361061012d5760003560e01c806367dd74ca116100a5578063a3c1a1fe1161006c578063a3c1a1fe14610393578063c4a4be83146103b3578063dd11247e146103c8578063eb2dbcf6146103de578063f02137c814610414578063f3ae24151461043457005b806367dd74ca146102f55780639199385914610308578063943ba2121461031d578063951e202114610330578063a13f1c621461035d57005b8063406b2c2c116100f4578063406b2c2c1461020f578063407724ac1461022f57806342fd92461461025c578063481c6a751461027b5780635a8acacc146102b35780635ff3337f146102d557005b80630412f4ab146101365780630a144fbf1461017f5780631209b1f6146101945780631bf33004146101aa57806324c14160146101ca57005b3661013457005b005b34801561014257600080fd5b5061016c6101513660046111e6565b6001600160a01b031660009081526004602052604090205490565b6040519081526020015b60405180910390f35b34801561018b57600080fd5b5060015461016c565b3480156101a057600080fd5b5061016c60015481565b3480156101b657600080fd5b506101346101c5366004611216565b610473565b3480156101d657600080fd5b506101ea6101e5366004611216565b6105c1565b604080516001600160a01b039094168452911515602084015290820152606001610176565b34801561021b57600080fd5b5061013461022a366004611216565b610624565b34801561023b57600080fd5b5061016c61024a366004611216565b60056020526000908152604090205481565b34801561026857600080fd5b506000546001600160a01b03163161016c565b34801561028757600080fd5b5060005461029b906001600160a01b031681565b6040516001600160a01b039091168152602001610176565b3480156102bf57600080fd5b506102c8610806565b604051610176919061122f565b3480156102e157600080fd5b506101346102f0366004611216565b61090b565b610134610303366004611216565b610a17565b34801561031457600080fd5b5061016c610c0d565b61013461032b366004611216565b610c5e565b34801561033c57600080fd5b5061016c61034b3660046111e6565b60046020526000908152604090205481565b34801561036957600080fd5b5061029b610378366004611216565b6006602052600090815260409020546001600160a01b031681565b34801561039f57600080fd5b506101346103ae366004611216565b610f9a565b3480156103bf57600080fd5b506102c8611052565b3480156103d457600080fd5b5061016c60025481565b3480156103ea57600080fd5b5061029b6103f9366004611216565b6003602052600090815260409020546001600160a01b031681565b34801561042057600080fd5b5061013461042f366004611216565b61113e565b34801561044057600080fd5b5061046361044f3660046111e6565b6000546001600160a01b0391821691161490565b6040519015158152602001610176565b33600090815260046020526040812054908190036104ac5760405162461bcd60e51b81526004016104a390611273565b60405180910390fd5b6000828152600360209081526040808320548484526006909252909120546001600160a01b0390811691161461051a5760405162461bcd60e51b81526020600482015260136024820152722737903b30b634b21039bbb0b81037b33332b960691b60448201526064016104a3565b6000828152600360209081526040808320805485855282852080546001600160a01b039092166001600160a01b031992831681179091558254339083168117909355918552600484528285208790558185528285208690558585526006845293829020805490941690935580518481529182018590527f3c5c3ca34136e6c4e2255ca1f42341f16cf924acaee035adeb287bda89025af691015b60405180910390a1505050565b600080600080841180156105d757506002548411155b6105f35760405162461bcd60e51b81526004016104a3906112a3565b5050506000908152600360209081526040808320546005909252909120546001600160a01b03909116918115159190565b60008111801561063657506002548111155b6106525760405162461bcd60e51b81526004016104a3906112a3565b33600090815260046020526040812054908190036106825760405162461bcd60e51b81526004016104a390611273565b6000828152600360205260409020546001600160a01b0316806106f15760405162461bcd60e51b815260206004820152602160248201527f546172676574207469636b6574206e6f74206f776e656420627920616e796f6e6044820152606560f81b60648201526084016104a3565b336001600160a01b038216036107495760405162461bcd60e51b815260206004820181905260248201527f43616e6e6f742073776170207769746820796f7572206f776e207469636b657460448201526064016104a3565b600083815260056020526040902054156107b05760405162461bcd60e51b815260206004820152602260248201527f546172676574207469636b6574206973206c697374656420666f7220726573616044820152616c6560f01b60648201526084016104a3565b60008381526006602090815260409182902080546001600160a01b031916339081179091558251868152918201527f0c429c57e135043f6747763fe5b3b53a88a48f2f03c709eaeb8634d2bf3d3f7c91016105b4565b6060600060015b6002548111610852576000818152600360205260409020546001600160a01b0316610840578161083c816112e4565b9250505b8061084a816112e4565b91505061080d565b5060008167ffffffffffffffff81111561086e5761086e6112fd565b604051908082528060200260200182016040528015610897578160200160208202803683370190505b509050600060015b6002548111610902576000818152600360205260409020546001600160a01b03166108f057808383815181106108d7576108d7611313565b6020908102919091010152816108ec816112e4565b9250505b806108fa816112e4565b91505061089f565b50909392505050565b6000546001600160a01b031633146109655760405162461bcd60e51b815260206004820152601c60248201527f4f6e6c79206d616e616765722063616e20616464207469636b6574730000000060448201526064016104a3565b600081116109b55760405162461bcd60e51b815260206004820152601c60248201527f4d75737420616464206174206c65617374206f6e65207469636b65740000000060448201526064016104a3565b6000816002546109c59190611329565b9050600060025460016109d89190611329565b90505b818111610a1057600081815260036020526040902080546001600160a01b031916905580610a08816112e4565b9150506109db565b5060025550565b600081118015610a2957506002548111155b610a455760405162461bcd60e51b81526004016104a3906112a3565b6000818152600360205260409020546001600160a01b031615610aa05760405162461bcd60e51b8152602060048201526013602482015272151a58dad95d08185b1c9958591e481cdbdb19606a1b60448201526064016104a3565b6001543414610af15760405162461bcd60e51b815260206004820152601860248201527f496e636f7272656374207061796d656e7420616d6f756e74000000000000000060448201526064016104a3565b600081815260036020908152604080832080546001600160a01b0319163390811790915583526004909152808220839055815490516001600160a01b039091169034908381818185875af1925050503d8060008114610b6c576040519150601f19603f3d011682016040523d82523d6000602084013e610b71565b606091505b5050905080610bd05760405162461bcd60e51b815260206004820152602560248201527f4661696c656420746f207472616e73666572207061796d656e7420746f206d616044820152643730b3b2b960d91b60648201526084016104a3565b604080518381523360208201527f785f2865353ae960010300f584fc6c577b757a853af69a99c769df3c8232d3de91015b60405180910390a15050565b60008060015b6002548111610c58576000818152600360205260409020546001600160a01b0316610c465781610c42816112e4565b9250505b80610c50816112e4565b915050610c13565b50919050565b600081815260056020526040902054610cb15760405162461bcd60e51b81526020600482015260156024820152745469636b6574206e6f7420666f7220726573616c6560581b60448201526064016104a3565b6000818152600560205260409020543414610d025760405162461bcd60e51b8152602060048201526011602482015270125b98dbdc9c9958dd081c185e5b595b9d607a1b60448201526064016104a3565b3360009081526004602052604090205415610d575760405162461bcd60e51b8152602060048201526015602482015274105b1c9958591e481bdddb9cc818481d1a58dad95d605a1b60448201526064016104a3565b60008181526003602090815260408083205460059092528220546001600160a01b03909116916064610d8a83600a611342565b610d949190611359565b90506000610da2828461137b565b6000805460405192935090916001600160a01b039091169084908381818185875af1925050503d8060008114610df4576040519150601f19603f3d011682016040523d82523d6000602084013e610df9565b606091505b5050905080610e4a5760405162461bcd60e51b815260206004820152601e60248201527f4661696c656420746f207472616e73666572207365727669636520666565000060448201526064016104a3565b6000856001600160a01b03168360405160006040518083038185875af1925050503d8060008114610e97576040519150601f19603f3d011682016040523d82523d6000602084013e610e9c565b606091505b5050905080610ef95760405162461bcd60e51b8152602060048201526024808201527f4661696c656420746f207472616e73666572207061796d656e7420746f207365604482015263363632b960e11b60648201526084016104a3565b600087815260036020908152604080832080546001600160a01b03191633908117909155808452600483528184208b90556001600160a01b038a168085528285208590558b8552600584528285209490945581518b815292830193909352810191909152606081018690527fd59a36d8310ffb140214be490baf3fe8961f859a17199ec1bf9015c8b73400119060800160405180910390a150505050505050565b3360009081526004602052604081205490819003610fca5760405162461bcd60e51b81526004016104a390611273565b6000821161100a5760405162461bcd60e51b815260206004820152600d60248201526c496e76616c696420707269636560981b60448201526064016104a3565b60008181526005602090815260409182902084905581518381529081018490527fa365c2e4770e249b3dbb47dbf991ec623ced2f1ded6b65442da12cade5514e079101610c01565b6060600060015b600254811161109657600081815260056020526040902054156110845781611080816112e4565b9250505b8061108e816112e4565b915050611059565b5060008167ffffffffffffffff8111156110b2576110b26112fd565b6040519080825280602002602001820160405280156110db578160200160208202803683370190505b509050600060015b6002548111610902576000818152600560205260409020541561112c578083838151811061111357611113611313565b602090810291909101015281611128816112e4565b9250505b80611136816112e4565b9150506110e3565b6000546001600160a01b031633146111985760405162461bcd60e51b815260206004820152601d60248201527f4f6e6c79206d616e616765722063616e2075706461746520707269636500000060448201526064016104a3565b600081116111e15760405162461bcd60e51b81526020600482015260166024820152755072696365206d75737420626520706f73697469766560501b60448201526064016104a3565b600155565b6000602082840312156111f857600080fd5b81356001600160a01b038116811461120f57600080fd5b9392505050565b60006020828403121561122857600080fd5b5035919050565b6020808252825182820181905260009190848201906040850190845b818110156112675783518352928401929184019160010161124b565b50909695505050505050565b602080825260169082015275165bdd48191bdb89dd081bdddb8818481d1a58dad95d60521b604082015260600190565b602080825260119082015270125b9d985b1a59081d1a58dad95d081251607a1b604082015260600190565b634e487b7160e01b600052601160045260246000fd5b6000600182016112f6576112f66112ce565b5060010190565b634e487b7160e01b600052604160045260246000fd5b634e487b7160e01b600052603260045260246000fd5b8082018082111561133c5761133c6112ce565b92915050565b808202811582820484141761133c5761133c6112ce565b60008261137657634e487b7160e01b600052601260045260246000fd5b500490565b8181038181111561133c5761133c6112ce56fea2646970667358221220eae36c43b34ec2efed8d9aaf003c60b559fb373d56ea041b5ced5af298b3a55b64736f6c63430008110033",
  "linkReferences": {},
  "deployedLinkReferences": {}
}