{
  "_format": "hh-sol-artifact-1",
  "contractName": "TicketSale",
  "sourceName": "contracts/TicketSale.sol",
  "abi": [
    {
      "inputs": [
        {
          "internalType": "uint256",
          "name": "numTickets",
          "type": "uint256"
        },
        {
          "internalType": "uint256",
          "name": "price",
          "type": "uint256"
        }
      ],
      "stateMutability": "nonpayable",
      "type": "constructor"
    },
    {
      "anonymous": false,
      "inputs": [
        {
          "indexed": false,
          "internalType": "uint256",
          "name": "ticketId",
          "type": "uint256"
        },
        {
          "indexed": false,
          "internalType": "address",
          "name": "buyer",
          "type": "address"
        }
      ],
      "name": "TicketPurchased",
      "type": "event"
    },
    {
      "anonymous": false,
      "inputs": [
        {
          "indexed": false,
          "internalType": "uint256",
          "name": "ticketId",
          "type": "uint256"
        },
        {
          "indexed": false,
          "internalType": "uint256",
          "name": "price",
          "type": "uint256"
        }
      ],
      "name": "TicketResaleListed",
      "type": "event"
    },
    {
      "anonymous": false,
      "inputs": [
        {
          "indexed": false,
          "internalType": "uint256",
          "name": "ticketId",
          "type": "uint256"
        },
        {
          "indexed": false,
          "internalType": "address",
          "name": "from",
          "type": "address"
        },
        {
          "indexed": false,
          "internalType": "address",
          "name": "to",
          "type": "address"
        },
        {
          "indexed": false,
          "internalType": "uint256",
          "name": "price",
          "type": "uint256"
        }
      ],
      "name": "TicketResold",
      "type": "event"
    },
    {
      "anonymous": false,
      "inputs": [
        {
          "indexed": false,
          "internalType": "uint256",
          "name": "ticketId",
          "type": "uint256"
        },
        {
          "indexed": false,
          "internalType": "address",
          "name": "offerer",
          "type": "address"
        }
      ],
      "name": "TicketSwapOffered",
      "type": "event"
    },
    {
      "anonymous": false,
      "inputs": [
        {
          "indexed": false,
          "internalType": "uint256",
          "name": "ticket1Id",
          "type": "uint256"
        },
        {
          "indexed": false,
          "internalType": "uint256",
          "name": "ticket2Id",
          "type": "uint256"
        }
      ],
      "name": "TicketSwapped",
      "type": "event"
    },
    {
      "stateMutability": "payable",
      "type": "fallback"
    },
    {
      "inputs": [
        {
          "internalType": "uint256",
          "name": "ticketId",
          "type": "uint256"
        }
      ],
      "name": "acceptResale",
      "outputs": [],
      "stateMutability": "payable",
      "type": "function"
    },
    {
      "inputs": [
        {
          "internalType": "uint256",
          "name": "ticketId",
          "type": "uint256"
        }
      ],
      "name": "acceptSwap",
      "outputs": [],
      "stateMutability": "nonpayable",
      "type": "function"
    },
    {
      "inputs": [
        {
          "internalType": "uint256",
          "name": "additionalTickets",
          "type": "uint256"
        }
      ],
      "name": "addTickets",
      "outputs": [],
      "stateMutability": "nonpayable",
      "type": "function"
    },
    {
      "inputs": [
        {
          "internalType": "uint256",
          "name": "ticketId",
          "type": "uint256"
        }
      ],
      "name": "buyTicket",
      "outputs": [],
      "stateMutability": "payable",
      "type": "function"
    },
    {
      "inputs": [],
      "name": "checkResale",
      "outputs": [
        {
          "internalType": "uint256[]",
          "name": "",
          "type": "uint256[]"
        }
      ],
      "stateMutability": "view",
      "type": "function"
    },
    {
      "inputs": [],
      "name": "getAvailableTickets",
      "outputs": [
        {
          "internalType": "uint256[]",
          "name": "",
          "type": "uint256[]"
        }
      ],
      "stateMutability": "view",
      "type": "function"
    },
    {
      "inputs": [],
      "name": "getManagerBalance",
      "outputs": [
        {
          "internalType": "uint256",
          "name": "",
          "type": "uint256"
        }
      ],
      "stateMutability": "view",
      "type": "function"
    },
    {
      "inputs": [
        {
          "internalType": "uint256",
          "name": "ticketId",
          "type": "uint256"
        }
      ],
      "name": "getTicketDetails",
      "outputs": [
        {
          "internalType": "address",
          "name": "owner",
          "type": "address"
        },
        {
          "internalType": "bool",
          "name": "isForSale",
          "type": "bool"
        },
        {
          "internalType": "uint256",
          "name": "resalePrice",
          "type": "uint256"
        }
      ],
      "stateMutability": "view",
      "type": "function"
    },
    {
      "inputs": [
        {
          "internalType": "address",
          "name": "person",
          "type": "address"
        }
      ],
      "name": "getTicketOf",
      "outputs": [
        {
          "internalType": "uint256",
          "name": "",
          "type": "uint256"
        }
      ],
      "stateMutability": "view",
      "type": "function"
    },
    {
      "inputs": [],
      "name": "getTicketPriceInEther",
      "outputs": [
        {
          "internalType": "uint256",
          "name": "",
          "type": "uint256"
        }
      ],
      "stateMutability": "view",
      "type": "function"
    },
    {
      "inputs": [],
      "name": "getTotalAvailableTickets",
      "outputs": [
        {
          "internalType": "uint256",
          "name": "",
          "type": "uint256"
        }
      ],
      "stateMutability": "view",
      "type": "function"
    },
    {
      "inputs": [
        {
          "internalType": "address",
          "name": "account",
          "type": "address"
        }
      ],
      "name": "isManager",
      "outputs": [
        {
          "internalType": "bool",
          "name": "",
          "type": "bool"
        }
      ],
      "stateMutability": "view",
      "type": "function"
    },
    {
      "inputs": [],
      "name": "manager",
      "outputs": [
        {
          "internalType": "address",
          "name": "",
          "type": "address"
        }
      ],
      "stateMutability": "view",
      "type": "function"
    },
    {
      "inputs": [
        {
          "internalType": "uint256",
          "name": "ticketId",
          "type": "uint256"
        }
      ],
      "name": "offerSwap",
      "outputs": [],
      "stateMutability": "nonpayable",
      "type": "function"
    },
    {
      "inputs": [
        {
          "internalType": "uint256",
          "name": "price",
          "type": "uint256"
        }
      ],
      "name": "resaleTicket",
      "outputs": [],
      "stateMutability": "nonpayable",
      "type": "function"
    },
    {
      "inputs": [
        {
          "internalType": "uint256",
          "name": "",
          "type": "uint256"
        }
      ],
      "name": "swapOffers",
      "outputs": [
        {
          "internalType": "address",
          "name": "",
          "type": "address"
        }
      ],
      "stateMutability": "view",
      "type": "function"
    },
    {
      "inputs": [
        {
          "internalType": "uint256",
          "name": "",
          "type": "uint256"
        }
      ],
      "name": "ticketOwners",
      "outputs": [
        {
          "internalType": "address",
          "name": "",
          "type": "address"
        }
      ],
      "stateMutability": "view",
      "type": "function"
    },
    {
      "inputs": [],
      "name": "ticketPrice",
      "outputs": [
        {
          "internalType": "uint256",
          "name": "",
          "type": "uint256"
        }
      ],
      "stateMutability": "view",
      "type": "function"
    },
    {
      "inputs": [
        {
          "internalType": "uint256",
          "name": "",
          "type": "uint256"
        }
      ],
      "name": "ticketsForResale",
      "outputs": [
        {
          "internalType": "uint256",
          "name": "",
          "type": "uint256"
        }
      ],
      "stateMutability": "view",
      "type": "function"
    },
    {
      "inputs": [
        {
          "internalType": "address",
          "name": "",
          "type": "address"
        }
      ],
      "name": "ticketsOwned",
      "outputs": [
        {
          "internalType": "uint256",
          "name": "",
          "type": "uint256"
        }
      ],
      "stateMutability": "view",
      "type": "function"
    },
    {
      "inputs": [],
      "name": "totalTickets",
      "outputs": [
        {
          "internalType": "uint256",
          "name": "",
          "type": "uint256"
        }
      ],
      "stateMutability": "view",
      "type": "function"
    },
    {
      "inputs": [
        {
          "internalType": "uint256",
          "name": "newPrice",
          "type": "uint256"
        }
      ],
      "name": "updateTicketPrice",
      "outputs": [],
      "stateMutability": "nonpayable",
      "type": "function"
    },
    {
      "stateMutability": "payable",
      "type": "receive"
    }
  ],
  "bytecode": "0x60806040523480156200001157600080fd5b50604051620014fe380380620014fe833981016040819052620000349162000146565b60008211620000955760405162461bcd60e51b815260206004820152602260248201527f4e756d626572206f66207469636b657473206d75737420626520706f73697469604482015261766560f01b60648201526084015b60405180910390fd5b60008111620000e75760405162461bcd60e51b815260206004820152601660248201527f5072696365206d75737420626520706f7369746976650000000000000000000060448201526064016200008c565b600080546001600160a01b03191633179055600181815560028390555b8281116200013d57600081815260036020526040902080546001600160a01b03191690558062000134816200016b565b91505062000104565b50505062000193565b600080604083850312156200015a57600080fd5b505080516020909101519092909150565b6000600182016200018c57634e487b7160e01b600052601160045260246000fd5b5060010190565b61135b80620001a36000396000f3fe60806040526004361061012d5760003560e01c806367dd74ca116100a5578063a3c1a1fe1161006c578063a3c1a1fe14610393578063c4a4be83146103b3578063dd11247e146103c8578063eb2dbcf6146103de578063f02137c814610414578063f3ae24151461043457005b806367dd74ca146102f55780639199385914610308578063943ba2121461031d578063951e202114610330578063a13f1c621461035d57005b8063406b2c2c116100f4578063406b2c2c1461020f578063407724ac1461022f57806342fd92461461025c578063481c6a751461027b5780635a8acacc146102b35780635ff3337f146102d557005b80630412f4ab146101365780630a144fbf1461017f5780631209b1f6146101945780631bf33004146101aa57806324c14160146101ca57005b3661013457005b005b34801561014257600080fd5b5061016c6101513660046111a8565b6001600160a01b031660009081526004602052604090205490565b6040519081526020015b60405180910390f35b34801561018b57600080fd5b5060015461016c565b3480156101a057600080fd5b5061016c60015481565b3480156101b657600080fd5b506101346101c53660046111d8565b610473565b3480156101d657600080fd5b506101ea6101e53660046111d8565b6105c0565b604080516001600160a01b039094168452911515602084015290820152606001610176565b34801561021b57600080fd5b5061013461022a3660046111d8565b610647565b34801561023b57600080fd5b5061016c61024a3660046111d8565b60056020526000908152604090205481565b34801561026857600080fd5b506000546001600160a01b03163161016c565b34801561028757600080fd5b5060005461029b906001600160a01b031681565b6040516001600160a01b039091168152602001610176565b3480156102bf57600080fd5b506102c8610739565b60405161017691906111f1565b3480156102e157600080fd5b506101346102f03660046111d8565b61083e565b6101346103033660046111d8565b61094a565b34801561031457600080fd5b5061016c610bc6565b61013461032b3660046111d8565b610c17565b34801561033c57600080fd5b5061016c61034b3660046111a8565b60046020526000908152604090205481565b34801561036957600080fd5b5061029b6103783660046111d8565b6006602052600090815260409020546001600160a01b031681565b34801561039f57600080fd5b506101346103ae3660046111d8565b610f53565b3480156103bf57600080fd5b506102c8611014565b3480156103d457600080fd5b5061016c60025481565b3480156103ea57600080fd5b5061029b6103f93660046111d8565b6003602052600090815260409020546001600160a01b031681565b34801561042057600080fd5b5061013461042f3660046111d8565b611100565b34801561044057600080fd5b5061046361044f3660046111a8565b6000546001600160a01b0391821691161490565b6040519015158152602001610176565b33600090815260046020526040812054908190036104ac5760405162461bcd60e51b81526004016104a390611235565b60405180910390fd5b6000828152600360209081526040808320548484526006909252909120546001600160a01b0390811691161461051a5760405162461bcd60e51b81526020600482015260136024820152722737903b30b634b21039bbb0b81037b33332b960691b60448201526064016104a3565b6000828152600360209081526040808320805485855282852080546001600160a01b039092166001600160a01b031992831681179091558254339083168117909355918552600484528285208790558185528285208690558585526006845293829020805490941690935580518481529182018590527f3c5c3ca34136e6c4e2255ca1f42341f16cf924acaee035adeb287bda89025af6910160405180910390a1505050565b600080600080841180156105d657506002548411155b6106165760405162461bcd60e51b8152602060048201526011602482015270125b9d985b1a59081d1a58dad95d081251607a1b60448201526064016104a3565b5050506000908152600360209081526040808320546005909252909120546001600160a01b03909116918115159190565b33600090815260046020526040812054908190036106775760405162461bcd60e51b81526004016104a390611235565b6000828152600360205260409020546001600160a01b03166106db5760405162461bcd60e51b815260206004820152601760248201527f546172676574207469636b6574206e6f74206f776e656400000000000000000060448201526064016104a3565b60008281526006602090815260409182902080546001600160a01b031916339081179091558251858152918201527f0c429c57e135043f6747763fe5b3b53a88a48f2f03c709eaeb8634d2bf3d3f7c91015b60405180910390a15050565b6060600060015b6002548111610785576000818152600360205260409020546001600160a01b0316610773578161076f8161127b565b9250505b8061077d8161127b565b915050610740565b5060008167ffffffffffffffff8111156107a1576107a1611294565b6040519080825280602002602001820160405280156107ca578160200160208202803683370190505b509050600060015b6002548111610835576000818152600360205260409020546001600160a01b0316610823578083838151811061080a5761080a6112aa565b60209081029190910101528161081f8161127b565b9250505b8061082d8161127b565b9150506107d2565b50909392505050565b6000546001600160a01b031633146108985760405162461bcd60e51b815260206004820152601c60248201527f4f6e6c79206d616e616765722063616e20616464207469636b6574730000000060448201526064016104a3565b600081116108e85760405162461bcd60e51b815260206004820152601c60248201527f4d75737420616464206174206c65617374206f6e65207469636b65740000000060448201526064016104a3565b6000816002546108f891906112c0565b90506000600254600161090b91906112c0565b90505b81811161094357600081815260036020526040902080546001600160a01b03191690558061093b8161127b565b91505061090e565b5060025550565b60008111801561095c57506002548111155b61099c5760405162461bcd60e51b8152602060048201526011602482015270125b9d985b1a59081d1a58dad95d081251607a1b60448201526064016104a3565b6000818152600360205260409020546001600160a01b0316156109f75760405162461bcd60e51b8152602060048201526013602482015272151a58dad95d08185b1c9958591e481cdbdb19606a1b60448201526064016104a3565b336000908152600460205260409020541580610a1d57506000546001600160a01b031633145b610a615760405162461bcd60e51b8152602060048201526015602482015274105b1c9958591e481bdddb9cc818481d1a58dad95d605a1b60448201526064016104a3565b6001543414610ab25760405162461bcd60e51b815260206004820152601860248201527f496e636f7272656374207061796d656e7420616d6f756e74000000000000000060448201526064016104a3565b600081815260036020908152604080832080546001600160a01b0319163390811790915583526004909152808220839055815490516001600160a01b039091169034908381818185875af1925050503d8060008114610b2d576040519150601f19603f3d011682016040523d82523d6000602084013e610b32565b606091505b5050905080610b915760405162461bcd60e51b815260206004820152602560248201527f4661696c656420746f207472616e73666572207061796d656e7420746f206d616044820152643730b3b2b960d91b60648201526084016104a3565b604080518381523360208201527f785f2865353ae960010300f584fc6c577b757a853af69a99c769df3c8232d3de910161072d565b60008060015b6002548111610c11576000818152600360205260409020546001600160a01b0316610bff5781610bfb8161127b565b9250505b80610c098161127b565b915050610bcc565b50919050565b600081815260056020526040902054610c6a5760405162461bcd60e51b81526020600482015260156024820152745469636b6574206e6f7420666f7220726573616c6560581b60448201526064016104a3565b6000818152600560205260409020543414610cbb5760405162461bcd60e51b8152602060048201526011602482015270125b98dbdc9c9958dd081c185e5b595b9d607a1b60448201526064016104a3565b3360009081526004602052604090205415610d105760405162461bcd60e51b8152602060048201526015602482015274105b1c9958591e481bdddb9cc818481d1a58dad95d605a1b60448201526064016104a3565b60008181526003602090815260408083205460059092528220546001600160a01b03909116916064610d4383600a6112d9565b610d4d91906112f0565b90506000610d5b8284611312565b6000805460405192935090916001600160a01b039091169084908381818185875af1925050503d8060008114610dad576040519150601f19603f3d011682016040523d82523d6000602084013e610db2565b606091505b5050905080610e035760405162461bcd60e51b815260206004820152601e60248201527f4661696c656420746f207472616e73666572207365727669636520666565000060448201526064016104a3565b6000856001600160a01b03168360405160006040518083038185875af1925050503d8060008114610e50576040519150601f19603f3d011682016040523d82523d6000602084013e610e55565b606091505b5050905080610eb25760405162461bcd60e51b8152602060048201526024808201527f4661696c656420746f207472616e73666572207061796d656e7420746f207365604482015263363632b960e11b60648201526084016104a3565b600087815260036020908152604080832080546001600160a01b03191633908117909155808452600483528184208b90556001600160a01b038a168085528285208590558b8552600584528285209490945581518b815292830193909352810191909152606081018690527fd59a36d8310ffb140214be490baf3fe8961f859a17199ec1bf9015c8b73400119060800160405180910390a150505050505050565b3360009081526004602052604081205490819003610f835760405162461bcd60e51b81526004016104a390611235565b60008211610fcc5760405162461bcd60e51b81526020600482015260166024820152755072696365206d75737420626520706f73697469766560501b60448201526064016104a3565b60008181526005602090815260409182902084905581518381529081018490527fa365c2e4770e249b3dbb47dbf991ec623ced2f1ded6b65442da12cade5514e07910161072d565b6060600060015b6002548111611058576000818152600560205260409020541561104657816110428161127b565b9250505b806110508161127b565b91505061101b565b5060008167ffffffffffffffff81111561107457611074611294565b60405190808252806020026020018201604052801561109d578160200160208202803683370190505b509050600060015b600254811161083557600081815260056020526040902054156110ee57808383815181106110d5576110d56112aa565b6020908102919091010152816110ea8161127b565b9250505b806110f88161127b565b9150506110a5565b6000546001600160a01b0316331461115a5760405162461bcd60e51b815260206004820152601d60248201527f4f6e6c79206d616e616765722063616e2075706461746520707269636500000060448201526064016104a3565b600081116111a35760405162461bcd60e51b81526020600482015260166024820152755072696365206d75737420626520706f73697469766560501b60448201526064016104a3565b600155565b6000602082840312156111ba57600080fd5b81356001600160a01b03811681146111d157600080fd5b9392505050565b6000602082840312156111ea57600080fd5b5035919050565b6020808252825182820181905260009190848201906040850190845b818110156112295783518352928401929184019160010161120d565b50909695505050505050565b602080825260169082015275165bdd48191bdb89dd081bdddb8818481d1a58dad95d60521b604082015260600190565b634e487b7160e01b600052601160045260246000fd5b60006001820161128d5761128d611265565b5060010190565b634e487b7160e01b600052604160045260246000fd5b634e487b7160e01b600052603260045260246000fd5b808201808211156112d3576112d3611265565b92915050565b80820281158282048414176112d3576112d3611265565b60008261130d57634e487b7160e01b600052601260045260246000fd5b500490565b818103818111156112d3576112d361126556fea2646970667358221220cae2641a9765af7d9350c95f7c813a0d41c30ac51a8d645c2482a10618a550c364736f6c63430008110033",
  "linkReferences": {},
  "deployedLinkReferences": {}
}